{
  "_format": "hh-sol-artifact-1",
  "contractName": "LandInspector",
  "sourceName": "contracts/LandInspector.sol",
  "abi": [
    {
      "inputs": [
        {
          "internalType": "address",
          "name": "_govermentAuthority",
          "type": "address"
        }
      ],
      "stateMutability": "nonpayable",
      "type": "constructor"
    },
    {
      "anonymous": false,
      "inputs": [
        {
          "indexed": true,
          "internalType": "address",
          "name": "LandInspectorWallet",
          "type": "address"
        },
        {
          "indexed": true,
          "internalType": "uint256",
          "name": "ID",
          "type": "uint256"
        },
        {
          "indexed": false,
          "internalType": "uint256",
          "name": "time",
          "type": "uint256"
        }
      ],
      "name": "addLandInspectorLogs",
      "type": "event"
    },
    {
      "anonymous": false,
      "inputs": [
        {
          "indexed": false,
          "internalType": "address",
          "name": "ContractAddress",
          "type": "address"
        },
        {
          "indexed": false,
          "internalType": "string",
          "name": "Name",
          "type": "string"
        },
        {
          "indexed": false,
          "internalType": "uint256",
          "name": "time",
          "type": "uint256"
        }
      ],
      "name": "addSocietyBlockLogs",
      "type": "event"
    },
    {
      "anonymous": false,
      "inputs": [
        {
          "indexed": true,
          "internalType": "address",
          "name": "LandInspectorWallet",
          "type": "address"
        },
        {
          "indexed": true,
          "internalType": "uint256",
          "name": "ID",
          "type": "uint256"
        },
        {
          "indexed": false,
          "internalType": "uint256",
          "name": "time",
          "type": "uint256"
        }
      ],
      "name": "removeLandInspectorLogs",
      "type": "event"
    },
    {
      "inputs": [
        {
          "internalType": "address",
          "name": "_landInspectorWallet",
          "type": "address"
        },
        {
          "internalType": "uint256",
          "name": "_id",
          "type": "uint256"
        }
      ],
      "name": "addLandInspector",
      "outputs": [],
      "stateMutability": "nonpayable",
      "type": "function"
    },
    {
      "inputs": [
        {
          "internalType": "uint256",
          "name": "_propertyId",
          "type": "uint256"
        },
        {
          "internalType": "string",
          "name": "_societyName",
          "type": "string"
        }
      ],
      "name": "addNewProperty",
      "outputs": [],
      "stateMutability": "nonpayable",
      "type": "function"
    },
    {
      "inputs": [
        {
          "internalType": "address",
          "name": "_contractAddress",
          "type": "address"
        },
        {
          "internalType": "string",
          "name": "_name",
          "type": "string"
        }
      ],
      "name": "addSocietyBlock",
      "outputs": [],
      "stateMutability": "nonpayable",
      "type": "function"
    },
    {
      "inputs": [
        {
          "internalType": "address",
          "name": "_societyBlockAddress",
          "type": "address"
        },
        {
          "internalType": "uint256",
          "name": "_propertyId",
          "type": "uint256"
        },
        {
          "internalType": "uint256",
          "name": "_requestNumber",
          "type": "uint256"
        },
        {
          "internalType": "uint256",
          "name": "_ownerCnic",
          "type": "uint256"
        },
        {
          "internalType": "uint256",
          "name": "_buyerCnic",
          "type": "uint256"
        }
      ],
      "name": "approveTransferRequest",
      "outputs": [],
      "stateMutability": "nonpayable",
      "type": "function"
    },
    {
      "inputs": [
        {
          "internalType": "address",
          "name": "_societyBlockAddress",
          "type": "address"
        },
        {
          "internalType": "uint256",
          "name": "_propertyId",
          "type": "uint256"
        },
        {
          "internalType": "uint256",
          "name": "_caseNumber",
          "type": "uint256"
        },
        {
          "internalType": "uint256",
          "name": "_verficationOTPCode",
          "type": "uint256"
        }
      ],
      "name": "executeReverseCase",
      "outputs": [],
      "stateMutability": "nonpayable",
      "type": "function"
    },
    {
      "inputs": [
        {
          "internalType": "address",
          "name": "_landInspectorWallet",
          "type": "address"
        },
        {
          "internalType": "uint256",
          "name": "_id",
          "type": "uint256"
        }
      ],
      "name": "removeLandInspector",
      "outputs": [],
      "stateMutability": "nonpayable",
      "type": "function"
    },
    {
      "inputs": [
        {
          "internalType": "uint256",
          "name": "_propertyId",
          "type": "uint256"
        },
        {
          "internalType": "uint256",
          "name": "_cnic",
          "type": "uint256"
        },
        {
          "internalType": "uint256",
          "name": "_sharesPercentage",
          "type": "uint256"
        },
        {
          "internalType": "uint256",
          "name": "_propertyTokensAmount",
          "type": "uint256"
        },
        {
          "internalType": "string",
          "name": "_areaName",
          "type": "string"
        }
      ],
      "name": "transferNewProperty",
      "outputs": [],
      "stateMutability": "nonpayable",
      "type": "function"
    }
  ],
  "bytecode": "0x60806040523480156200001157600080fd5b5060405162001300380380620013008339818101604052810190620000379190620000e8565b806000806101000a81548173ffffffffffffffffffffffffffffffffffffffff021916908373ffffffffffffffffffffffffffffffffffffffff160217905550506200011a565b600080fd5b600073ffffffffffffffffffffffffffffffffffffffff82169050919050565b6000620000b08262000083565b9050919050565b620000c281620000a3565b8114620000ce57600080fd5b50565b600081519050620000e281620000b7565b92915050565b6000602082840312156200010157620001006200007e565b5b60006200011184828501620000d1565b91505092915050565b6111d6806200012a6000396000f3fe608060405234801561001057600080fd5b506004361061007d5760003560e01c80633ef62b661161005b5780633ef62b66146100d65780635edd0540146100f25780637aa1216c1461010e578063d5baaf881461012a5761007d565b80631004c78a146100825780631237ad7b1461009e5780632c1b1eea146100ba575b600080fd5b61009c60048036038101906100979190610bef565b610146565b005b6100b860048036038101906100b39190610ca9565b61028a565b005b6100d460048036038101906100cf9190610ce9565b61044a565b005b6100f060048036038101906100eb9190610ca9565b610556565b005b61010c60048036038101906101079190610d50565b6106d9565b005b61012860048036038101906101239190610dcb565b6107e8565b005b610144600480360381019061013f9190610e62565b610935565b005b600260003373ffffffffffffffffffffffffffffffffffffffff1673ffffffffffffffffffffffffffffffffffffffff16815260200190815260200160002060010160009054906101000a900460ff166101d5576040517f08c379a00000000000000000000000000000000000000000000000000000000081526004016101cc90610f1b565b60405180910390fd5b60006001826040516101e79190610fac565b908152602001604051809103902060009054906101000a900473ffffffffffffffffffffffffffffffffffffffff1690508073ffffffffffffffffffffffffffffffffffffffff1663bbee631184336040518363ffffffff1660e01b8152600401610253929190610fe1565b600060405180830381600087803b15801561026d57600080fd5b505af1158015610281573d6000803e3d6000fd5b50505050505050565b60008054906101000a900473ffffffffffffffffffffffffffffffffffffffff1673ffffffffffffffffffffffffffffffffffffffff163373ffffffffffffffffffffffffffffffffffffffff1614610318576040517f08c379a000000000000000000000000000000000000000000000000000000000815260040161030f90610f1b565b60405180910390fd5b600260008373ffffffffffffffffffffffffffffffffffffffff1673ffffffffffffffffffffffffffffffffffffffff16815260200190815260200160002060000154811461039c576040517f08c379a000000000000000000000000000000000000000000000000000000000815260040161039390611056565b60405180910390fd5b6000600260008473ffffffffffffffffffffffffffffffffffffffff1673ffffffffffffffffffffffffffffffffffffffff16815260200190815260200160002060010160006101000a81548160ff021916908315150217905550808273ffffffffffffffffffffffffffffffffffffffff167f689e8551d09cbfd7fd364ffdf89628af1bc1b631c6911c94660713b3f50a8ae54260405161043e9190611076565b60405180910390a35050565b600260003373ffffffffffffffffffffffffffffffffffffffff1673ffffffffffffffffffffffffffffffffffffffff16815260200190815260200160002060010160009054906101000a900460ff166104d9576040517f08c379a00000000000000000000000000000000000000000000000000000000081526004016104d090610f1b565b60405180910390fd5b60008490508073ffffffffffffffffffffffffffffffffffffffff16633dcc0835858585336040518563ffffffff1660e01b815260040161051d9493929190611091565b600060405180830381600087803b15801561053757600080fd5b505af115801561054b573d6000803e3d6000fd5b505050505050505050565b60008054906101000a900473ffffffffffffffffffffffffffffffffffffffff1673ffffffffffffffffffffffffffffffffffffffff163373ffffffffffffffffffffffffffffffffffffffff16146105e4576040517f08c379a00000000000000000000000000000000000000000000000000000000081526004016105db90610f1b565b60405180910390fd5b80600260008473ffffffffffffffffffffffffffffffffffffffff1673ffffffffffffffffffffffffffffffffffffffff168152602001908152602001600020600001819055506001600260008473ffffffffffffffffffffffffffffffffffffffff1673ffffffffffffffffffffffffffffffffffffffff16815260200190815260200160002060010160006101000a81548160ff021916908315150217905550808273ffffffffffffffffffffffffffffffffffffffff167fe52d4bcba300072363266781343b190c67680f1eb0f79ceb34922788645f9706426040516106cd9190611076565b60405180910390a35050565b600260003373ffffffffffffffffffffffffffffffffffffffff1673ffffffffffffffffffffffffffffffffffffffff16815260200190815260200160002060010160009054906101000a900460ff16610768576040517f08c379a000000000000000000000000000000000000000000000000000000000815260040161075f90610f1b565b60405180910390fd5b60008590508073ffffffffffffffffffffffffffffffffffffffff1663fd94e0eb86868686336040518663ffffffff1660e01b81526004016107ae9594939291906110d6565b600060405180830381600087803b1580156107c857600080fd5b505af11580156107dc573d6000803e3d6000fd5b50505050505050505050565b600260003373ffffffffffffffffffffffffffffffffffffffff1673ffffffffffffffffffffffffffffffffffffffff16815260200190815260200160002060010160009054906101000a900460ff16610877576040517f08c379a000000000000000000000000000000000000000000000000000000000815260040161086e90610f1b565b60405180910390fd5b60006001826040516108899190610fac565b908152602001604051809103902060009054906101000a900473ffffffffffffffffffffffffffffffffffffffff1690508073ffffffffffffffffffffffffffffffffffffffff16635cc2531387878787336040518663ffffffff1660e01b81526004016108fb9594939291906110d6565b600060405180830381600087803b15801561091557600080fd5b505af1158015610929573d6000803e3d6000fd5b50505050505050505050565b60008054906101000a900473ffffffffffffffffffffffffffffffffffffffff1673ffffffffffffffffffffffffffffffffffffffff163373ffffffffffffffffffffffffffffffffffffffff16146109c3576040517f08c379a00000000000000000000000000000000000000000000000000000000081526004016109ba90610f1b565b60405180910390fd5b816001826040516109d49190610fac565b908152602001604051809103902060006101000a81548173ffffffffffffffffffffffffffffffffffffffff021916908373ffffffffffffffffffffffffffffffffffffffff1602179055507f5999bd57b9975c6b48305c76e0fa01586f4f27882b4b1f4006d1676a7b6589e4828242604051610a5393929190611162565b60405180910390a15050565b6000604051905090565b600080fd5b600080fd5b6000819050919050565b610a8681610a73565b8114610a9157600080fd5b50565b600081359050610aa381610a7d565b92915050565b600080fd5b600080fd5b6000601f19601f8301169050919050565b7f4e487b7100000000000000000000000000000000000000000000000000000000600052604160045260246000fd5b610afc82610ab3565b810181811067ffffffffffffffff82111715610b1b57610b1a610ac4565b5b80604052505050565b6000610b2e610a5f565b9050610b3a8282610af3565b919050565b600067ffffffffffffffff821115610b5a57610b59610ac4565b5b610b6382610ab3565b9050602081019050919050565b82818337600083830152505050565b6000610b92610b8d84610b3f565b610b24565b905082815260208101848484011115610bae57610bad610aae565b5b610bb9848285610b70565b509392505050565b600082601f830112610bd657610bd5610aa9565b5b8135610be6848260208601610b7f565b91505092915050565b60008060408385031215610c0657610c05610a69565b5b6000610c1485828601610a94565b925050602083013567ffffffffffffffff811115610c3557610c34610a6e565b5b610c4185828601610bc1565b9150509250929050565b600073ffffffffffffffffffffffffffffffffffffffff82169050919050565b6000610c7682610c4b565b9050919050565b610c8681610c6b565b8114610c9157600080fd5b50565b600081359050610ca381610c7d565b92915050565b60008060408385031215610cc057610cbf610a69565b5b6000610cce85828601610c94565b9250506020610cdf85828601610a94565b9150509250929050565b60008060008060808587031215610d0357610d02610a69565b5b6000610d1187828801610c94565b9450506020610d2287828801610a94565b9350506040610d3387828801610a94565b9250506060610d4487828801610a94565b91505092959194509250565b600080600080600060a08688031215610d6c57610d6b610a69565b5b6000610d7a88828901610c94565b9550506020610d8b88828901610a94565b9450506040610d9c88828901610a94565b9350506060610dad88828901610a94565b9250506080610dbe88828901610a94565b9150509295509295909350565b600080600080600060a08688031215610de757610de6610a69565b5b6000610df588828901610a94565b9550506020610e0688828901610a94565b9450506040610e1788828901610a94565b9350506060610e2888828901610a94565b925050608086013567ffffffffffffffff811115610e4957610e48610a6e565b5b610e5588828901610bc1565b9150509295509295909350565b60008060408385031215610e7957610e78610a69565b5b6000610e8785828601610c94565b925050602083013567ffffffffffffffff811115610ea857610ea7610a6e565b5b610eb485828601610bc1565b9150509250929050565b600082825260208201905092915050565b7f556e617574686f72697a65642100000000000000000000000000000000000000600082015250565b6000610f05600d83610ebe565b9150610f1082610ecf565b602082019050919050565b60006020820190508181036000830152610f3481610ef8565b9050919050565b600081519050919050565b600081905092915050565b60005b83811015610f6f578082015181840152602081019050610f54565b60008484015250505050565b6000610f8682610f3b565b610f908185610f46565b9350610fa0818560208601610f51565b80840191505092915050565b6000610fb88284610f7b565b915081905092915050565b610fcc81610a73565b82525050565b610fdb81610c6b565b82525050565b6000604082019050610ff66000830185610fc3565b6110036020830184610fd2565b9392505050565b7f57726f6e6720496e73706563746f722049440000000000000000000000000000600082015250565b6000611040601283610ebe565b915061104b8261100a565b602082019050919050565b6000602082019050818103600083015261106f81611033565b9050919050565b600060208201905061108b6000830184610fc3565b92915050565b60006080820190506110a66000830187610fc3565b6110b36020830186610fc3565b6110c06040830185610fc3565b6110cd6060830184610fd2565b95945050505050565b600060a0820190506110eb6000830188610fc3565b6110f86020830187610fc3565b6111056040830186610fc3565b6111126060830185610fc3565b61111f6080830184610fd2565b9695505050505050565b600061113482610f3b565b61113e8185610ebe565b935061114e818560208601610f51565b61115781610ab3565b840191505092915050565b60006060820190506111776000830186610fd2565b81810360208301526111898185611129565b90506111986040830184610fc3565b94935050505056fea264697066735822122027eb787c8e9e29a79a339600f22cff723a46f7f6482d29fff4528738cab11edd64736f6c63430008120033",
  "linkReferences": {},
  "deployedLinkReferences": {}
}