{
  "_format": "hh-sol-artifact-1",
  "contractName": "Citizens",
  "sourceName": "contracts/Citizens.sol",
  "abi": [
    {
      "inputs": [
        {
          "internalType": "address",
          "name": "_goverment",
          "type": "address"
        },
        {
          "internalType": "address",
          "name": "_highcourt",
          "type": "address"
        }
      ],
      "stateMutability": "nonpayable",
      "type": "constructor"
    },
    {
      "inputs": [
        {
          "internalType": "uint256",
          "name": "_CNIC",
          "type": "uint256"
        },
        {
          "internalType": "address",
          "name": "_walletAddress",
          "type": "address"
        }
      ],
      "name": "approveCitizen",
      "outputs": [],
      "stateMutability": "nonpayable",
      "type": "function"
    },
    {
      "inputs": [
        {
          "internalType": "uint256",
          "name": "_CNIC",
          "type": "uint256"
        }
      ],
      "name": "declareDeath",
      "outputs": [],
      "stateMutability": "nonpayable",
      "type": "function"
    },
    {
      "inputs": [
        {
          "internalType": "uint256",
          "name": "_cnic",
          "type": "uint256"
        }
      ],
      "name": "getCititzenWallet",
      "outputs": [
        {
          "internalType": "address",
          "name": "walletAddress",
          "type": "address"
        }
      ],
      "stateMutability": "view",
      "type": "function"
    },
    {
      "inputs": [
        {
          "internalType": "uint256",
          "name": "_cnic",
          "type": "uint256"
        }
      ],
      "name": "getCitizenIsAlive",
      "outputs": [
        {
          "internalType": "bool",
          "name": "isAlliveStatus",
          "type": "bool"
        }
      ],
      "stateMutability": "view",
      "type": "function"
    },
    {
      "inputs": [
        {
          "internalType": "uint256",
          "name": "_cnic",
          "type": "uint256"
        }
      ],
      "name": "getCitizenIsApproved",
      "outputs": [
        {
          "internalType": "bool",
          "name": "isApprovedStatus",
          "type": "bool"
        }
      ],
      "stateMutability": "view",
      "type": "function"
    },
    {
      "inputs": [
        {
          "internalType": "uint256",
          "name": "_CNIC",
          "type": "uint256"
        }
      ],
      "name": "newCitizenRequest",
      "outputs": [],
      "stateMutability": "nonpayable",
      "type": "function"
    },
    {
      "inputs": [
        {
          "internalType": "uint256",
          "name": "_CNIC",
          "type": "uint256"
        }
      ],
      "name": "rejectCititzenRequest",
      "outputs": [],
      "stateMutability": "nonpayable",
      "type": "function"
    },
    {
      "inputs": [
        {
          "internalType": "uint256",
          "name": "_CNIC",
          "type": "uint256"
        }
      ],
      "name": "stayOnCitizen",
      "outputs": [],
      "stateMutability": "nonpayable",
      "type": "function"
    }
  ],
  "bytecode": "0x60806040523480156200001157600080fd5b50604051620010ae380380620010ae83398181016040528101906200003791906200012a565b816000806101000a81548173ffffffffffffffffffffffffffffffffffffffff021916908373ffffffffffffffffffffffffffffffffffffffff16021790555080600160006101000a81548173ffffffffffffffffffffffffffffffffffffffff021916908373ffffffffffffffffffffffffffffffffffffffff160217905550505062000171565b600080fd5b600073ffffffffffffffffffffffffffffffffffffffff82169050919050565b6000620000f282620000c5565b9050919050565b6200010481620000e5565b81146200011057600080fd5b50565b6000815190506200012481620000f9565b92915050565b60008060408385031215620001445762000143620000c0565b5b6000620001548582860162000113565b9250506020620001678582860162000113565b9150509250929050565b610f2d80620001816000396000f3fe608060405234801561001057600080fd5b50600436106100885760003560e01c8063bdeadaf41161005b578063bdeadaf414610125578063c27f08f614610141578063cf28fc9d1461015d578063fb6ce3961461018d57610088565b80632e566c381461008d5780637d6076d6146100a957806388b9f41c146100d95780639d152e01146100f5575b600080fd5b6100a760048036038101906100a29190610a7b565b6101a9565b005b6100c360048036038101906100be9190610a7b565b610304565b6040516100d09190610ac3565b60405180910390f35b6100f360048036038101906100ee9190610a7b565b610331565b005b61010f600480360381019061010a9190610a7b565b6103f1565b60405161011c9190610ac3565b60405180910390f35b61013f600480360381019061013a9190610a7b565b61041e565b005b61015b60048036038101906101569190610b3c565b610673565b005b61017760048036038101906101729190610a7b565b61093e565b6040516101849190610b8b565b60405180910390f35b6101a760048036038101906101a29190610a7b565b61097e565b005b600015156002600083815260200190815260200160002060000160159054906101000a900460ff16151514610213576040517f08c379a000000000000000000000000000000000000000000000000000000000815260040161020a90610c03565b60405180910390fd5b600015156002600083815260200190815260200160002060000160169054906101000a900460ff1615151461027d576040517f08c379a000000000000000000000000000000000000000000000000000000000815260040161027490610c6f565b60405180910390fd5b60016002600083815260200190815260200160002060000160166101000a81548160ff021916908315150217905550336002600083815260200190815260200160002060000160006101000a81548173ffffffffffffffffffffffffffffffffffffffff021916908373ffffffffffffffffffffffffffffffffffffffff16021790555050565b60006002600083815260200190815260200160002060000160149054906101000a900460ff169050919050565b60008054906101000a900473ffffffffffffffffffffffffffffffffffffffff1673ffffffffffffffffffffffffffffffffffffffff163373ffffffffffffffffffffffffffffffffffffffff16146103bf576040517f08c379a00000000000000000000000000000000000000000000000000000000081526004016103b690610d01565b60405180910390fd5b60006002600083815260200190815260200160002060000160146101000a81548160ff02191690831515021790555050565b60006002600083815260200190815260200160002060000160159054906101000a900460ff169050919050565b60008054906101000a900473ffffffffffffffffffffffffffffffffffffffff1673ffffffffffffffffffffffffffffffffffffffff163373ffffffffffffffffffffffffffffffffffffffff16146104ac576040517f08c379a00000000000000000000000000000000000000000000000000000000081526004016104a390610d01565b60405180910390fd5b6002600082815260200190815260200160002060000160169054906101000a900460ff1661050f576040517f08c379a000000000000000000000000000000000000000000000000000000000815260040161050690610d93565b60405180910390fd5b600015156002600083815260200190815260200160002060000160149054906101000a900460ff16151514610579576040517f08c379a000000000000000000000000000000000000000000000000000000000815260040161057090610dff565b60405180910390fd5b600015156002600083815260200190815260200160002060000160159054906101000a900460ff161515146105e3576040517f08c379a00000000000000000000000000000000000000000000000000000000081526004016105da90610dff565b60405180910390fd5b60026000828152602001908152602001600020600080820160006101000a81549073ffffffffffffffffffffffffffffffffffffffff02191690556000820160146101000a81549060ff02191690556000820160156101000a81549060ff02191690556000820160166101000a81549060ff02191690556000820160176101000a81549060ff0219169055505050565b60008054906101000a900473ffffffffffffffffffffffffffffffffffffffff1673ffffffffffffffffffffffffffffffffffffffff163373ffffffffffffffffffffffffffffffffffffffff1614610701576040517f08c379a00000000000000000000000000000000000000000000000000000000081526004016106f890610d01565b60405180910390fd5b6002600083815260200190815260200160002060000160169054906101000a900460ff16610764576040517f08c379a000000000000000000000000000000000000000000000000000000000815260040161075b90610d93565b60405180910390fd5b600015156002600084815260200190815260200160002060000160149054906101000a900460ff161515146107ce576040517f08c379a00000000000000000000000000000000000000000000000000000000081526004016107c590610dff565b60405180910390fd5b600015156002600084815260200190815260200160002060000160159054906101000a900460ff16151514610838576040517f08c379a000000000000000000000000000000000000000000000000000000000815260040161082f90610dff565b60405180910390fd5b8073ffffffffffffffffffffffffffffffffffffffff166002600084815260200190815260200160002060000160009054906101000a900473ffffffffffffffffffffffffffffffffffffffff1673ffffffffffffffffffffffffffffffffffffffff16146108dc576040517f08c379a00000000000000000000000000000000000000000000000000000000081526004016108d390610e6b565b60405180910390fd5b60016002600084815260200190815260200160002060000160146101000a81548160ff02191690831515021790555060016002600084815260200190815260200160002060000160156101000a81548160ff0219169083151502179055505050565b60006002600083815260200190815260200160002060000160009054906101000a900473ffffffffffffffffffffffffffffffffffffffff169050919050565b600160009054906101000a900473ffffffffffffffffffffffffffffffffffffffff1673ffffffffffffffffffffffffffffffffffffffff163373ffffffffffffffffffffffffffffffffffffffff1614610a0e576040517f08c379a0000000000000000000000000000000000000000000000000000000008152600401610a0590610ed7565b60405180910390fd5b60016002600083815260200190815260200160002060000160176101000a81548160ff02191690831515021790555050565b600080fd5b6000819050919050565b610a5881610a45565b8114610a6357600080fd5b50565b600081359050610a7581610a4f565b92915050565b600060208284031215610a9157610a90610a40565b5b6000610a9f84828501610a66565b91505092915050565b60008115159050919050565b610abd81610aa8565b82525050565b6000602082019050610ad86000830184610ab4565b92915050565b600073ffffffffffffffffffffffffffffffffffffffff82169050919050565b6000610b0982610ade565b9050919050565b610b1981610afe565b8114610b2457600080fd5b50565b600081359050610b3681610b10565b92915050565b60008060408385031215610b5357610b52610a40565b5b6000610b6185828601610a66565b9250506020610b7285828601610b27565b9150509250929050565b610b8581610afe565b82525050565b6000602082019050610ba06000830184610b7c565b92915050565b600082825260208201905092915050565b7f596f752061726520616c7265616479206578697374732e000000000000000000600082015250565b6000610bed601783610ba6565b9150610bf882610bb7565b602082019050919050565b60006020820190508181036000830152610c1c81610be0565b9050919050565b7f596f752061726520696e2077616974696e67204c697374000000000000000000600082015250565b6000610c59601783610ba6565b9150610c6482610c23565b602082019050919050565b60006020820190508181036000830152610c8881610c4c565b9050919050565b7f4f6e6c7920476f7665726d656e7420417574686f7269747920697320616c6c6f60008201527f7765640000000000000000000000000000000000000000000000000000000000602082015250565b6000610ceb602383610ba6565b9150610cf682610c8f565b604082019050919050565b60006020820190508181036000830152610d1a81610cde565b9050919050565b7f5468657265206973206e6f207265717565737420666f7220746861742050657260008201527f736f6e0000000000000000000000000000000000000000000000000000000000602082015250565b6000610d7d602383610ba6565b9150610d8882610d21565b604082019050919050565b60006020820190508181036000830152610dac81610d70565b9050919050565b7f436974697a656e20697320616c7265647920617070726f766564000000000000600082015250565b6000610de9601a83610ba6565b9150610df482610db3565b602082019050919050565b60006020820190508181036000830152610e1881610ddc565b9050919050565b7f57726f6e672077616c6c65742041646472657373000000000000000000000000600082015250565b6000610e55601483610ba6565b9150610e6082610e1f565b602082019050919050565b60006020820190508181036000830152610e8481610e48565b9050919050565b7f4f6e6c79204869676820636f75727420697320616c6c6f776564000000000000600082015250565b6000610ec1601a83610ba6565b9150610ecc82610e8b565b602082019050919050565b60006020820190508181036000830152610ef081610eb4565b905091905056fea264697066735822122062d2a6f6a098302e5f9de40b20b148b73feb7d1934438703e088546f5f97eae064736f6c63430008120033",
  "linkReferences": {},
  "deployedLinkReferences": {}
}