{
  "_format": "hh-sol-artifact-1",
  "contractName": "GovermentAuthority",
  "sourceName": "contracts/govermenAuthority.sol",
  "abi": [
    {
      "inputs": [
        {
          "internalType": "address",
          "name": "_chairman",
          "type": "address"
        }
      ],
      "stateMutability": "nonpayable",
      "type": "constructor"
    },
    {
      "anonymous": false,
      "inputs": [
        {
          "indexed": true,
          "internalType": "address",
          "name": "AdminWallet",
          "type": "address"
        },
        {
          "indexed": true,
          "internalType": "uint256",
          "name": "ID",
          "type": "uint256"
        },
        {
          "indexed": false,
          "internalType": "bool",
          "name": "Status",
          "type": "bool"
        },
        {
          "indexed": false,
          "internalType": "uint256",
          "name": "TimeStamp",
          "type": "uint256"
        }
      ],
      "name": "AdminsLogs",
      "type": "event"
    },
    {
      "anonymous": false,
      "inputs": [
        {
          "indexed": true,
          "internalType": "uint256",
          "name": "CNIC",
          "type": "uint256"
        },
        {
          "indexed": false,
          "internalType": "address",
          "name": "WalletAddress",
          "type": "address"
        },
        {
          "indexed": true,
          "internalType": "string",
          "name": "CityName",
          "type": "string"
        },
        {
          "indexed": true,
          "internalType": "uint256",
          "name": "AddminId",
          "type": "uint256"
        },
        {
          "indexed": false,
          "internalType": "uint256",
          "name": "Time",
          "type": "uint256"
        }
      ],
      "name": "approveCitizenLogs",
      "type": "event"
    },
    {
      "anonymous": false,
      "inputs": [
        {
          "indexed": true,
          "internalType": "address",
          "name": "ContractAddress",
          "type": "address"
        },
        {
          "indexed": true,
          "internalType": "string",
          "name": "Name",
          "type": "string"
        },
        {
          "indexed": false,
          "internalType": "uint256",
          "name": "Time",
          "type": "uint256"
        }
      ],
      "name": "citizensContractsLogs",
      "type": "event"
    },
    {
      "anonymous": false,
      "inputs": [
        {
          "indexed": true,
          "internalType": "address",
          "name": "SocietyAddress",
          "type": "address"
        },
        {
          "indexed": true,
          "internalType": "uint256",
          "name": "AdminID",
          "type": "uint256"
        },
        {
          "indexed": false,
          "internalType": "uint256",
          "name": "Amount",
          "type": "uint256"
        }
      ],
      "name": "increasePropertiesLogs",
      "type": "event"
    },
    {
      "anonymous": false,
      "inputs": [
        {
          "indexed": true,
          "internalType": "uint256",
          "name": "CNIC",
          "type": "uint256"
        },
        {
          "indexed": true,
          "internalType": "string",
          "name": "CityName",
          "type": "string"
        },
        {
          "indexed": true,
          "internalType": "uint256",
          "name": "AddminId",
          "type": "uint256"
        },
        {
          "indexed": false,
          "internalType": "uint256",
          "name": "Time",
          "type": "uint256"
        }
      ],
      "name": "rejectCitizenLogs",
      "type": "event"
    },
    {
      "anonymous": false,
      "inputs": [
        {
          "indexed": true,
          "internalType": "address",
          "name": "SocietyAddress",
          "type": "address"
        },
        {
          "indexed": true,
          "internalType": "uint256",
          "name": "AdminID",
          "type": "uint256"
        },
        {
          "indexed": false,
          "internalType": "uint256",
          "name": "PropertiesCount",
          "type": "uint256"
        }
      ],
      "name": "societyApprovalLogs",
      "type": "event"
    },
    {
      "inputs": [
        {
          "internalType": "address",
          "name": "_adminWallet",
          "type": "address"
        },
        {
          "internalType": "uint256",
          "name": "_adminId",
          "type": "uint256"
        }
      ],
      "name": "addAdmins",
      "outputs": [],
      "stateMutability": "nonpayable",
      "type": "function"
    },
    {
      "inputs": [
        {
          "internalType": "address",
          "name": "_contractAddress",
          "type": "address"
        },
        {
          "internalType": "string",
          "name": "_name",
          "type": "string"
        }
      ],
      "name": "addCitizenContract",
      "outputs": [],
      "stateMutability": "nonpayable",
      "type": "function"
    },
    {
      "inputs": [
        {
          "internalType": "address",
          "name": "_inspectorAddress",
          "type": "address"
        },
        {
          "internalType": "uint256",
          "name": "_id",
          "type": "uint256"
        },
        {
          "internalType": "address",
          "name": "_contractAddress",
          "type": "address"
        }
      ],
      "name": "addlandInspector",
      "outputs": [],
      "stateMutability": "nonpayable",
      "type": "function"
    },
    {
      "inputs": [
        {
          "internalType": "uint256",
          "name": "_CNIC",
          "type": "uint256"
        },
        {
          "internalType": "address",
          "name": "_walletAddress",
          "type": "address"
        },
        {
          "internalType": "string",
          "name": "_cityName",
          "type": "string"
        }
      ],
      "name": "approveCitizen",
      "outputs": [],
      "stateMutability": "nonpayable",
      "type": "function"
    },
    {
      "inputs": [
        {
          "internalType": "address",
          "name": "_blockAddress",
          "type": "address"
        },
        {
          "internalType": "uint256",
          "name": "_propertiesCount",
          "type": "uint256"
        }
      ],
      "name": "approveSociety",
      "outputs": [],
      "stateMutability": "nonpayable",
      "type": "function"
    },
    {
      "inputs": [
        {
          "internalType": "address",
          "name": "_societyAddress",
          "type": "address"
        },
        {
          "internalType": "address",
          "name": "_contractAddressOfLandInspector",
          "type": "address"
        },
        {
          "internalType": "string",
          "name": "_name",
          "type": "string"
        }
      ],
      "name": "asingSocietyToLandInspector",
      "outputs": [],
      "stateMutability": "nonpayable",
      "type": "function"
    },
    {
      "inputs": [
        {
          "internalType": "address",
          "name": "_societyBlockAddress",
          "type": "address"
        },
        {
          "internalType": "address",
          "name": "_newAddress",
          "type": "address"
        }
      ],
      "name": "chagneAdminsContract",
      "outputs": [],
      "stateMutability": "nonpayable",
      "type": "function"
    },
    {
      "inputs": [
        {
          "internalType": "address",
          "name": "_cityContract",
          "type": "address"
        },
        {
          "internalType": "uint256",
          "name": "_CNIC",
          "type": "uint256"
        }
      ],
      "name": "declareDeath",
      "outputs": [],
      "stateMutability": "nonpayable",
      "type": "function"
    },
    {
      "inputs": [
        {
          "internalType": "address",
          "name": "_blockAddress",
          "type": "address"
        },
        {
          "internalType": "uint256",
          "name": "_addAmount",
          "type": "uint256"
        }
      ],
      "name": "increaseProperties",
      "outputs": [],
      "stateMutability": "nonpayable",
      "type": "function"
    },
    {
      "inputs": [
        {
          "internalType": "uint256",
          "name": "_CNIC",
          "type": "uint256"
        },
        {
          "internalType": "string",
          "name": "_cityName",
          "type": "string"
        }
      ],
      "name": "rejectCitizen",
      "outputs": [],
      "stateMutability": "nonpayable",
      "type": "function"
    },
    {
      "inputs": [
        {
          "internalType": "address",
          "name": "_adminWallet",
          "type": "address"
        }
      ],
      "name": "removeAdmins",
      "outputs": [],
      "stateMutability": "nonpayable",
      "type": "function"
    },
    {
      "inputs": [
        {
          "internalType": "address",
          "name": "_inspectorAddress",
          "type": "address"
        },
        {
          "internalType": "uint256",
          "name": "_id",
          "type": "uint256"
        },
        {
          "internalType": "address",
          "name": "_contractAddress",
          "type": "address"
        }
      ],
      "name": "removeLandInspector",
      "outputs": [],
      "stateMutability": "nonpayable",
      "type": "function"
    },
    {
      "inputs": [
        {
          "internalType": "address",
          "name": "_SocietyBlockAddress",
          "type": "address"
        },
        {
          "internalType": "uint256",
          "name": "_propertyId",
          "type": "uint256"
        },
        {
          "internalType": "uint256",
          "name": "_caseNumber",
          "type": "uint256"
        },
        {
          "internalType": "uint256",
          "name": "_verficationOTPCode",
          "type": "uint256"
        },
        {
          "internalType": "uint256",
          "name": "_newOTPCode",
          "type": "uint256"
        }
      ],
      "name": "signatureToReverse",
      "outputs": [],
      "stateMutability": "nonpayable",
      "type": "function"
    }
  ],
  "bytecode": "0x60806040523480156200001157600080fd5b5060405162001d4e38038062001d4e8339818101604052810190620000379190620000e8565b806000806101000a81548173ffffffffffffffffffffffffffffffffffffffff021916908373ffffffffffffffffffffffffffffffffffffffff160217905550506200011a565b600080fd5b600073ffffffffffffffffffffffffffffffffffffffff82169050919050565b6000620000b08262000083565b9050919050565b620000c281620000a3565b8114620000ce57600080fd5b50565b600081519050620000e281620000b7565b92915050565b6000602082840312156200010157620001006200007e565b5b60006200011184828501620000d1565b91505092915050565b611c24806200012a6000396000f3fe608060405234801561001057600080fd5b50600436106100cf5760003560e01c80634c2e6c581161008c578063c480165511610066578063c4801655146101d0578063c6b7e9e8146101ec578063d767a3ad14610208578063ff31098f14610224576100cf565b80634c2e6c581461017c57806374b72195146101985780637c98a028146101b4576100cf565b8063269c2672146100d45780632d62bc7d146100f0578063350260f21461010c57806336ae14aa146101285780633cd91d6014610144578063499b7bfa14610160575b600080fd5b6100ee60048036038101906100e99190611588565b610240565b005b61010a600480360381019061010591906115f7565b610418565b005b61012660048036038101906101219190611653565b61056b565b005b610142600480360381019061013d91906116af565b61073e565b005b61015e600480360381019061015991906116ef565b610842565b005b61017a6004803603810190610175919061175e565b610949565b005b610196600480360381019061019191906116af565b610ac9565b005b6101b260048036038101906101ad919061178b565b610c60565b005b6101ce60048036038101906101c991906117cb565b610d63565b005b6101ea60048036038101906101e591906117cb565b610e6a565b005b610206600480360381019061020191906116af565b610f71565b005b610222600480360381019061021d91906116af565b6110f6565b005b61023e6004803603810190610239919061181e565b61128d565b005b600160003373ffffffffffffffffffffffffffffffffffffffff1673ffffffffffffffffffffffffffffffffffffffff16815260200190815260200160002060010160009054906101000a900460ff166102cf576040517f08c379a00000000000000000000000000000000000000000000000000000000081526004016102c69061191c565b60405180910390fd5b60006002826040516102e191906119ad565b908152602001604051809103902060009054906101000a900473ffffffffffffffffffffffffffffffffffffffff1690508073ffffffffffffffffffffffffffffffffffffffff1663c27f08f685856040518363ffffffff1660e01b815260040161034d9291906119e2565b600060405180830381600087803b15801561036757600080fd5b505af115801561037b573d6000803e3d6000fd5b50505050600160003373ffffffffffffffffffffffffffffffffffffffff1673ffffffffffffffffffffffffffffffffffffffff16815260200190815260200160002060000154826040516103d091906119ad565b6040518091039020857ff070096fdab6719376d83bfc7e1ef9034bfde9549efa4b7a6014171ac372a0cd864260405161040a929190611a0b565b60405180910390a450505050565b60008054906101000a900473ffffffffffffffffffffffffffffffffffffffff1673ffffffffffffffffffffffffffffffffffffffff163373ffffffffffffffffffffffffffffffffffffffff16146104a6576040517f08c379a000000000000000000000000000000000000000000000000000000000815260040161049d90611aa6565b60405180910390fd5b816002826040516104b791906119ad565b908152602001604051809103902060006101000a81548173ffffffffffffffffffffffffffffffffffffffff021916908373ffffffffffffffffffffffffffffffffffffffff1602179055508060405161051191906119ad565b60405180910390208273ffffffffffffffffffffffffffffffffffffffff167f79c4611b3ca2a40ab859dc9b7defdeafdc363543068fa8a27d8d60e84bfe083d4260405161055f9190611ac6565b60405180910390a35050565b600160003373ffffffffffffffffffffffffffffffffffffffff1673ffffffffffffffffffffffffffffffffffffffff16815260200190815260200160002060010160009054906101000a900460ff166105fa576040517f08c379a00000000000000000000000000000000000000000000000000000000081526004016105f19061191c565b60405180910390fd5b600060028260405161060c91906119ad565b908152602001604051809103902060009054906101000a900473ffffffffffffffffffffffffffffffffffffffff1690508073ffffffffffffffffffffffffffffffffffffffff1663bdeadaf4846040518263ffffffff1660e01b81526004016106769190611ac6565b600060405180830381600087803b15801561069057600080fd5b505af11580156106a4573d6000803e3d6000fd5b50505050600160003373ffffffffffffffffffffffffffffffffffffffff1673ffffffffffffffffffffffffffffffffffffffff16815260200190815260200160002060000154826040516106f991906119ad565b6040518091039020847fa9e5884dc799f722958dedb85420579656295e579e68fdf4e72ed4506b25b8e7426040516107319190611ac6565b60405180910390a4505050565b600160003373ffffffffffffffffffffffffffffffffffffffff1673ffffffffffffffffffffffffffffffffffffffff16815260200190815260200160002060010160009054906101000a900460ff166107cd576040517f08c379a00000000000000000000000000000000000000000000000000000000081526004016107c49061191c565b60405180910390fd5b60008290508073ffffffffffffffffffffffffffffffffffffffff166388b9f41c836040518263ffffffff1660e01b815260040161080b9190611ac6565b600060405180830381600087803b15801561082557600080fd5b505af1158015610839573d6000803e3d6000fd5b50505050505050565b600160003373ffffffffffffffffffffffffffffffffffffffff1673ffffffffffffffffffffffffffffffffffffffff16815260200190815260200160002060010160009054906101000a900460ff166108d1576040517f08c379a00000000000000000000000000000000000000000000000000000000081526004016108c89061191c565b60405180910390fd5b60008290508073ffffffffffffffffffffffffffffffffffffffff1663d5baaf8885846040518363ffffffff1660e01b8152600401610911929190611b1a565b600060405180830381600087803b15801561092b57600080fd5b505af115801561093f573d6000803e3d6000fd5b5050505050505050565b60008054906101000a900473ffffffffffffffffffffffffffffffffffffffff1673ffffffffffffffffffffffffffffffffffffffff163373ffffffffffffffffffffffffffffffffffffffff16146109d7576040517f08c379a00000000000000000000000000000000000000000000000000000000081526004016109ce90611aa6565b60405180910390fd5b6000600160008373ffffffffffffffffffffffffffffffffffffffff1673ffffffffffffffffffffffffffffffffffffffff16815260200190815260200160002060010160006101000a81548160ff021916908315150217905550600160008273ffffffffffffffffffffffffffffffffffffffff1673ffffffffffffffffffffffffffffffffffffffff168152602001908152602001600020600001548173ffffffffffffffffffffffffffffffffffffffff167fa60caf0361b4035ad80a8aa59e0bac3ef1d102715f224896bbd306ea365bd2ca600042604051610abe929190611b65565b60405180910390a350565b600160003373ffffffffffffffffffffffffffffffffffffffff1673ffffffffffffffffffffffffffffffffffffffff16815260200190815260200160002060010160009054906101000a900460ff16610b58576040517f08c379a0000000000000000000000000000000000000000000000000000000008152600401610b4f9061191c565b60405180910390fd5b60008290508073ffffffffffffffffffffffffffffffffffffffff1663095ea7b384846040518363ffffffff1660e01b8152600401610b98929190611a0b565b600060405180830381600087803b158015610bb257600080fd5b505af1158015610bc6573d6000803e3d6000fd5b50505050600160003373ffffffffffffffffffffffffffffffffffffffff1673ffffffffffffffffffffffffffffffffffffffff168152602001908152602001600020600001548373ffffffffffffffffffffffffffffffffffffffff167f96a977c5e7e5caa68926958efa747caf6f5f3f3febf0341833db197830015fc384604051610c539190611ac6565b60405180910390a3505050565b60008054906101000a900473ffffffffffffffffffffffffffffffffffffffff1673ffffffffffffffffffffffffffffffffffffffff163373ffffffffffffffffffffffffffffffffffffffff1614610cee576040517f08c379a0000000000000000000000000000000000000000000000000000000008152600401610ce590611aa6565b60405180910390fd5b60008290508073ffffffffffffffffffffffffffffffffffffffff16634757019d836040518263ffffffff1660e01b8152600401610d2c9190611b8e565b600060405180830381600087803b158015610d4657600080fd5b505af1158015610d5a573d6000803e3d6000fd5b50505050505050565b600160003373ffffffffffffffffffffffffffffffffffffffff1673ffffffffffffffffffffffffffffffffffffffff16815260200190815260200160002060010160009054906101000a900460ff16610df2576040517f08c379a0000000000000000000000000000000000000000000000000000000008152600401610de99061191c565b60405180910390fd5b60008190508073ffffffffffffffffffffffffffffffffffffffff16631237ad7b85856040518363ffffffff1660e01b8152600401610e32929190611a0b565b600060405180830381600087803b158015610e4c57600080fd5b505af1158015610e60573d6000803e3d6000fd5b5050505050505050565b600160003373ffffffffffffffffffffffffffffffffffffffff1673ffffffffffffffffffffffffffffffffffffffff16815260200190815260200160002060010160009054906101000a900460ff16610ef9576040517f08c379a0000000000000000000000000000000000000000000000000000000008152600401610ef09061191c565b60405180910390fd5b60008190508073ffffffffffffffffffffffffffffffffffffffff16633ef62b6685856040518363ffffffff1660e01b8152600401610f39929190611a0b565b600060405180830381600087803b158015610f5357600080fd5b505af1158015610f67573d6000803e3d6000fd5b5050505050505050565b60008054906101000a900473ffffffffffffffffffffffffffffffffffffffff1673ffffffffffffffffffffffffffffffffffffffff163373ffffffffffffffffffffffffffffffffffffffff1614610fff576040517f08c379a0000000000000000000000000000000000000000000000000000000008152600401610ff690611aa6565b60405180910390fd5b80600160008473ffffffffffffffffffffffffffffffffffffffff1673ffffffffffffffffffffffffffffffffffffffff1681526020019081526020016000206000018190555060018060008473ffffffffffffffffffffffffffffffffffffffff1673ffffffffffffffffffffffffffffffffffffffff16815260200190815260200160002060010160006101000a81548160ff021916908315150217905550808273ffffffffffffffffffffffffffffffffffffffff167fa60caf0361b4035ad80a8aa59e0bac3ef1d102715f224896bbd306ea365bd2ca6001426040516110ea929190611b65565b60405180910390a35050565b600160003373ffffffffffffffffffffffffffffffffffffffff1673ffffffffffffffffffffffffffffffffffffffff16815260200190815260200160002060010160009054906101000a900460ff16611185576040517f08c379a000000000000000000000000000000000000000000000000000000000815260040161117c9061191c565b60405180910390fd5b60008290508073ffffffffffffffffffffffffffffffffffffffff1663d767a3ad84846040518363ffffffff1660e01b81526004016111c5929190611a0b565b600060405180830381600087803b1580156111df57600080fd5b505af11580156111f3573d6000803e3d6000fd5b50505050600160003373ffffffffffffffffffffffffffffffffffffffff1673ffffffffffffffffffffffffffffffffffffffff168152602001908152602001600020600001548373ffffffffffffffffffffffffffffffffffffffff167f03c8e65f95ac23f20edfcc6d96fc668cda3131b6f8521192c02c955f03ef2b0a846040516112809190611ac6565b60405180910390a3505050565b600160003373ffffffffffffffffffffffffffffffffffffffff1673ffffffffffffffffffffffffffffffffffffffff16815260200190815260200160002060010160009054906101000a900460ff1661131c576040517f08c379a00000000000000000000000000000000000000000000000000000000081526004016113139061191c565b60405180910390fd5b60008590508073ffffffffffffffffffffffffffffffffffffffff166337cba4e6868686866040518563ffffffff1660e01b81526004016113609493929190611ba9565b600060405180830381600087803b15801561137a57600080fd5b505af115801561138e573d6000803e3d6000fd5b50505050505050505050565b6000604051905090565b600080fd5b600080fd5b6000819050919050565b6113c1816113ae565b81146113cc57600080fd5b50565b6000813590506113de816113b8565b92915050565b600073ffffffffffffffffffffffffffffffffffffffff82169050919050565b600061140f826113e4565b9050919050565b61141f81611404565b811461142a57600080fd5b50565b60008135905061143c81611416565b92915050565b600080fd5b600080fd5b6000601f19601f8301169050919050565b7f4e487b7100000000000000000000000000000000000000000000000000000000600052604160045260246000fd5b6114958261144c565b810181811067ffffffffffffffff821117156114b4576114b361145d565b5b80604052505050565b60006114c761139a565b90506114d3828261148c565b919050565b600067ffffffffffffffff8211156114f3576114f261145d565b5b6114fc8261144c565b9050602081019050919050565b82818337600083830152505050565b600061152b611526846114d8565b6114bd565b90508281526020810184848401111561154757611546611447565b5b611552848285611509565b509392505050565b600082601f83011261156f5761156e611442565b5b813561157f848260208601611518565b91505092915050565b6000806000606084860312156115a1576115a06113a4565b5b60006115af868287016113cf565b93505060206115c08682870161142d565b925050604084013567ffffffffffffffff8111156115e1576115e06113a9565b5b6115ed8682870161155a565b9150509250925092565b6000806040838503121561160e5761160d6113a4565b5b600061161c8582860161142d565b925050602083013567ffffffffffffffff81111561163d5761163c6113a9565b5b6116498582860161155a565b9150509250929050565b6000806040838503121561166a576116696113a4565b5b6000611678858286016113cf565b925050602083013567ffffffffffffffff811115611699576116986113a9565b5b6116a58582860161155a565b9150509250929050565b600080604083850312156116c6576116c56113a4565b5b60006116d48582860161142d565b92505060206116e5858286016113cf565b9150509250929050565b600080600060608486031215611708576117076113a4565b5b60006117168682870161142d565b93505060206117278682870161142d565b925050604084013567ffffffffffffffff811115611748576117476113a9565b5b6117548682870161155a565b9150509250925092565b600060208284031215611774576117736113a4565b5b60006117828482850161142d565b91505092915050565b600080604083850312156117a2576117a16113a4565b5b60006117b08582860161142d565b92505060206117c18582860161142d565b9150509250929050565b6000806000606084860312156117e4576117e36113a4565b5b60006117f28682870161142d565b9350506020611803868287016113cf565b92505060406118148682870161142d565b9150509250925092565b600080600080600060a0868803121561183a576118396113a4565b5b60006118488882890161142d565b9550506020611859888289016113cf565b945050604061186a888289016113cf565b935050606061187b888289016113cf565b925050608061188c888289016113cf565b9150509295509295909350565b600082825260208201905092915050565b7f4f6e6c792041646d696e732063616e20646f2074686973206f7065726174696f60008201527f6e00000000000000000000000000000000000000000000000000000000000000602082015250565b6000611906602183611899565b9150611911826118aa565b604082019050919050565b60006020820190508181036000830152611935816118f9565b9050919050565b600081519050919050565b600081905092915050565b60005b83811015611970578082015181840152602081019050611955565b60008484015250505050565b60006119878261193c565b6119918185611947565b93506119a1818560208601611952565b80840191505092915050565b60006119b9828461197c565b915081905092915050565b6119cd816113ae565b82525050565b6119dc81611404565b82525050565b60006040820190506119f760008301856119c4565b611a0460208301846119d3565b9392505050565b6000604082019050611a2060008301856119d3565b611a2d60208301846119c4565b9392505050565b7f4f6e6c792043686169726d616e2063616e20646f2074686973206f706572617460008201527f696f6e0000000000000000000000000000000000000000000000000000000000602082015250565b6000611a90602383611899565b9150611a9b82611a34565b604082019050919050565b60006020820190508181036000830152611abf81611a83565b9050919050565b6000602082019050611adb60008301846119c4565b92915050565b6000611aec8261193c565b611af68185611899565b9350611b06818560208601611952565b611b0f8161144c565b840191505092915050565b6000604082019050611b2f60008301856119d3565b8181036020830152611b418184611ae1565b90509392505050565b60008115159050919050565b611b5f81611b4a565b82525050565b6000604082019050611b7a6000830185611b56565b611b8760208301846119c4565b9392505050565b6000602082019050611ba360008301846119d3565b92915050565b6000608082019050611bbe60008301876119c4565b611bcb60208301866119c4565b611bd860408301856119c4565b611be560608301846119c4565b9594505050505056fea26469706673582212209b379c8295c09ace6f1a1581c95da05011d713a7445209e37176c6f9aef8b19064736f6c63430008120033",
  "linkReferences": {},
  "deployedLinkReferences": {}
}