{
  "_format": "hh-sol-artifact-1",
  "contractName": "Highcourt",
  "sourceName": "contracts/Highcourt.sol",
  "abi": [
    {
      "inputs": [
        {
          "internalType": "address",
          "name": "_admin",
          "type": "address"
        }
      ],
      "stateMutability": "nonpayable",
      "type": "constructor"
    },
    {
      "inputs": [
        {
          "internalType": "address",
          "name": "_newAdmin",
          "type": "address"
        }
      ],
      "name": "chagneAdmin",
      "outputs": [],
      "stateMutability": "nonpayable",
      "type": "function"
    },
    {
      "inputs": [
        {
          "internalType": "address",
          "name": "_soceityBlockAddress",
          "type": "address"
        },
        {
          "internalType": "uint256",
          "name": "_propertyId",
          "type": "uint256"
        },
        {
          "internalType": "uint256",
          "name": "_caseNumber",
          "type": "uint256"
        },
        {
          "internalType": "uint256",
          "name": "_cutFrom",
          "type": "uint256"
        },
        {
          "internalType": "uint256",
          "name": "_addTo",
          "type": "uint256"
        },
        {
          "internalType": "uint256",
          "name": "_amountOfShares",
          "type": "uint256"
        },
        {
          "internalType": "uint256",
          "name": "OTPCode",
          "type": "uint256"
        }
      ],
      "name": "generateReverseCase",
      "outputs": [],
      "stateMutability": "nonpayable",
      "type": "function"
    },
    {
      "inputs": [
        {
          "internalType": "address",
          "name": "_societyBlockAddress",
          "type": "address"
        },
        {
          "internalType": "uint256",
          "name": "_propertyId",
          "type": "uint256"
        }
      ],
      "name": "stayOnProperty",
      "outputs": [],
      "stateMutability": "nonpayable",
      "type": "function"
    }
  ],
  "bytecode": "0x608060405234801561001057600080fd5b50604051610661380380610661833981810160405281019061003291906100db565b806000806101000a81548173ffffffffffffffffffffffffffffffffffffffff021916908373ffffffffffffffffffffffffffffffffffffffff16021790555050610108565b600080fd5b600073ffffffffffffffffffffffffffffffffffffffff82169050919050565b60006100a88261007d565b9050919050565b6100b88161009d565b81146100c357600080fd5b50565b6000815190506100d5816100af565b92915050565b6000602082840312156100f1576100f0610078565b5b60006100ff848285016100c6565b91505092915050565b61054a806101176000396000f3fe608060405234801561001057600080fd5b50600436106100415760003560e01c8063625789c714610046578063e2cfbc5314610062578063fb45155a1461007e575b600080fd5b610060600480360381019061005b91906102fd565b61009a565b005b61007c6004803603810190610077919061039f565b6101ac565b005b610098600480360381019061009391906103df565b610221565b005b60008054906101000a900473ffffffffffffffffffffffffffffffffffffffff1673ffffffffffffffffffffffffffffffffffffffff163373ffffffffffffffffffffffffffffffffffffffff1614610128576040517f08c379a000000000000000000000000000000000000000000000000000000000815260040161011f90610469565b60405180910390fd5b60008790508073ffffffffffffffffffffffffffffffffffffffff1663f9d2ba938888888888886040518763ffffffff1660e01b815260040161017096959493929190610498565b600060405180830381600087803b15801561018a57600080fd5b505af115801561019e573d6000803e3d6000fd5b505050505050505050505050565b60008290508073ffffffffffffffffffffffffffffffffffffffff166397b2e888836040518263ffffffff1660e01b81526004016101ea91906104f9565b600060405180830381600087803b15801561020457600080fd5b505af1158015610218573d6000803e3d6000fd5b50505050505050565b806000806101000a81548173ffffffffffffffffffffffffffffffffffffffff021916908373ffffffffffffffffffffffffffffffffffffffff16021790555050565b600080fd5b600073ffffffffffffffffffffffffffffffffffffffff82169050919050565b600061029482610269565b9050919050565b6102a481610289565b81146102af57600080fd5b50565b6000813590506102c18161029b565b92915050565b6000819050919050565b6102da816102c7565b81146102e557600080fd5b50565b6000813590506102f7816102d1565b92915050565b600080600080600080600060e0888a03121561031c5761031b610264565b5b600061032a8a828b016102b2565b975050602061033b8a828b016102e8565b965050604061034c8a828b016102e8565b955050606061035d8a828b016102e8565b945050608061036e8a828b016102e8565b93505060a061037f8a828b016102e8565b92505060c06103908a828b016102e8565b91505092959891949750929550565b600080604083850312156103b6576103b5610264565b5b60006103c4858286016102b2565b92505060206103d5858286016102e8565b9150509250929050565b6000602082840312156103f5576103f4610264565b5b6000610403848285016102b2565b91505092915050565b600082825260208201905092915050565b7f4f6e6c792041646d696e2063616e20646f207468697300000000000000000000600082015250565b600061045360168361040c565b915061045e8261041d565b602082019050919050565b6000602082019050818103600083015261048281610446565b9050919050565b610492816102c7565b82525050565b600060c0820190506104ad6000830189610489565b6104ba6020830188610489565b6104c76040830187610489565b6104d46060830186610489565b6104e16080830185610489565b6104ee60a0830184610489565b979650505050505050565b600060208201905061050e6000830184610489565b9291505056fea2646970667358221220e51be2b99405ed05f1cf1356978d356d025d4c7edf36657de166185a01630abc64736f6c63430008120033",
  "linkReferences": {},
  "deployedLinkReferences": {}
}