{
  "_format": "hh-sol-artifact-1",
  "contractName": "SocietyBlock",
  "sourceName": "contracts/Parkview.sol",
  "abi": [
    {
      "anonymous": false,
      "inputs": [
        {
          "indexed": true,
          "internalType": "uint256",
          "name": "PropertyId",
          "type": "uint256"
        },
        {
          "indexed": true,
          "internalType": "address",
          "name": "AddByInspector",
          "type": "address"
        },
        {
          "indexed": false,
          "internalType": "uint256",
          "name": "Time",
          "type": "uint256"
        }
      ],
      "name": "AddNewPropertyLog",
      "type": "event"
    },
    {
      "anonymous": false,
      "inputs": [
        {
          "indexed": true,
          "internalType": "uint256",
          "name": "PropertyId",
          "type": "uint256"
        },
        {
          "indexed": true,
          "internalType": "uint256",
          "name": "BuyerCnic",
          "type": "uint256"
        },
        {
          "indexed": true,
          "internalType": "uint256",
          "name": "SellerCnic",
          "type": "uint256"
        },
        {
          "indexed": false,
          "internalType": "uint256",
          "name": "SharesAmount",
          "type": "uint256"
        },
        {
          "indexed": false,
          "internalType": "uint256",
          "name": "Prize",
          "type": "uint256"
        },
        {
          "indexed": false,
          "internalType": "uint256",
          "name": "Time",
          "type": "uint256"
        }
      ],
      "name": "PrpertyTransactionRecord",
      "type": "event"
    },
    {
      "inputs": [],
      "name": "CitizenContract",
      "outputs": [
        {
          "internalType": "address",
          "name": "",
          "type": "address"
        }
      ],
      "stateMutability": "view",
      "type": "function"
    },
    {
      "inputs": [
        {
          "internalType": "uint256",
          "name": "_propertyId",
          "type": "uint256"
        },
        {
          "internalType": "address",
          "name": "_inspector",
          "type": "address"
        }
      ],
      "name": "addNewProperty",
      "outputs": [],
      "stateMutability": "nonpayable",
      "type": "function"
    },
    {
      "inputs": [
        {
          "internalType": "address",
          "name": "_blockAddress",
          "type": "address"
        },
        {
          "internalType": "uint256",
          "name": "_checkPropertiesAmount",
          "type": "uint256"
        }
      ],
      "name": "approve",
      "outputs": [],
      "stateMutability": "nonpayable",
      "type": "function"
    },
    {
      "inputs": [
        {
          "internalType": "address",
          "name": "_newcontractAddress",
          "type": "address"
        }
      ],
      "name": "changeAdminsContract",
      "outputs": [],
      "stateMutability": "nonpayable",
      "type": "function"
    },
    {
      "inputs": [],
      "name": "currentCountProperties",
      "outputs": [
        {
          "internalType": "uint256",
          "name": "",
          "type": "uint256"
        }
      ],
      "stateMutability": "view",
      "type": "function"
    },
    {
      "inputs": [],
      "name": "govermentAuthority",
      "outputs": [
        {
          "internalType": "address",
          "name": "",
          "type": "address"
        }
      ],
      "stateMutability": "view",
      "type": "function"
    },
    {
      "inputs": [],
      "name": "highcourt",
      "outputs": [
        {
          "internalType": "address",
          "name": "",
          "type": "address"
        }
      ],
      "stateMutability": "view",
      "type": "function"
    },
    {
      "inputs": [
        {
          "internalType": "address",
          "name": "_blockAddress",
          "type": "address"
        },
        {
          "internalType": "uint256",
          "name": "_addAmount",
          "type": "uint256"
        }
      ],
      "name": "increaseProperties",
      "outputs": [],
      "stateMutability": "nonpayable",
      "type": "function"
    },
    {
      "inputs": [],
      "name": "isLdaApproved",
      "outputs": [
        {
          "internalType": "bool",
          "name": "",
          "type": "bool"
        }
      ],
      "stateMutability": "view",
      "type": "function"
    },
    {
      "inputs": [],
      "name": "landInspectorContract",
      "outputs": [
        {
          "internalType": "address",
          "name": "",
          "type": "address"
        }
      ],
      "stateMutability": "view",
      "type": "function"
    },
    {
      "inputs": [
        {
          "internalType": "uint256",
          "name": "",
          "type": "uint256"
        }
      ],
      "name": "properties",
      "outputs": [
        {
          "internalType": "bool",
          "name": "exists",
          "type": "bool"
        },
        {
          "internalType": "uint256",
          "name": "sharesLeft",
          "type": "uint256"
        },
        {
          "internalType": "bool",
          "name": "stay",
          "type": "bool"
        }
      ],
      "stateMutability": "view",
      "type": "function"
    },
    {
      "inputs": [],
      "name": "totalProperties",
      "outputs": [
        {
          "internalType": "uint256",
          "name": "",
          "type": "uint256"
        }
      ],
      "stateMutability": "view",
      "type": "function"
    }
  ],
  "bytecode": "0x60806040526000600155600060025573d9145cce52d386f254917e481eb44e9943f39138600360006101000a81548173ffffffffffffffffffffffffffffffffffffffff021916908373ffffffffffffffffffffffffffffffffffffffff16021790555073d9145cce52d386f254917e481eb44e9943f39138600460006101000a81548173ffffffffffffffffffffffffffffffffffffffff021916908373ffffffffffffffffffffffffffffffffffffffff160217905550739d7f74d0c41e726ec95884e0e97fa6129e3b5e99600560006101000a81548173ffffffffffffffffffffffffffffffffffffffff021916908373ffffffffffffffffffffffffffffffffffffffff160217905550739d7f74d0c41e726ec95884e0e97fa6129e3b5e99600660006101000a81548173ffffffffffffffffffffffffffffffffffffffff021916908373ffffffffffffffffffffffffffffffffffffffff16021790555034801561016e57600080fd5b50610e0f8061017e6000396000f3fe608060405234801561001057600080fd5b50600436106100b45760003560e01c806396966289116100715780639696628914610169578063bbee631114610187578063d767a3ad146101a3578063f3fb4bde146101bf578063f7b10808146101dd578063faae1f991461020f576100b4565b8063095ea7b3146100b95780630b3bce20146100d55780634757019d146100f3578063719b88251461010f5780637c7a39171461012d57806385ff41071461014b575b600080fd5b6100d360048036038101906100ce91906108b0565b61022d565b005b6100dd61038e565b6040516100ea91906108ff565b60405180910390f35b61010d6004803603810190610108919061091a565b610394565b005b6101176103d8565b6040516101249190610956565b60405180910390f35b6101356103fe565b604051610142919061098c565b60405180910390f35b61015361040f565b6040516101609190610956565b60405180910390f35b610171610435565b60405161017e91906108ff565b60405180910390f35b6101a1600480360381019061019c91906109a7565b61043b565b005b6101bd60048036038101906101b891906108b0565b61062e565b005b6101c7610787565b6040516101d49190610956565b60405180910390f35b6101f760048036038101906101f291906109e7565b6107ad565b60405161020693929190610a14565b60405180910390f35b6102176107f1565b6040516102249190610956565b60405180910390f35b600360009054906101000a900473ffffffffffffffffffffffffffffffffffffffff1673ffffffffffffffffffffffffffffffffffffffff163373ffffffffffffffffffffffffffffffffffffffff16146102bd576040517f08c379a00000000000000000000000000000000000000000000000000000000081526004016102b490610aa8565b60405180910390fd5b806002541115610302576040517f08c379a00000000000000000000000000000000000000000000000000000000081526004016102f990610b3a565b60405180910390fd5b8173ffffffffffffffffffffffffffffffffffffffff163073ffffffffffffffffffffffffffffffffffffffff1614610370576040517f08c379a000000000000000000000000000000000000000000000000000000000815260040161036790610ba6565b60405180910390fd5b60016000806101000a81548160ff0219169083151502179055505050565b60015481565b80600460006101000a81548173ffffffffffffffffffffffffffffffffffffffff021916908373ffffffffffffffffffffffffffffffffffffffff16021790555050565b600360009054906101000a900473ffffffffffffffffffffffffffffffffffffffff1681565b60008054906101000a900460ff1681565b600660009054906101000a900473ffffffffffffffffffffffffffffffffffffffff1681565b60025481565b600460009054906101000a900473ffffffffffffffffffffffffffffffffffffffff1673ffffffffffffffffffffffffffffffffffffffff163373ffffffffffffffffffffffffffffffffffffffff16146104cb576040517f08c379a00000000000000000000000000000000000000000000000000000000081526004016104c290610c12565b60405180910390fd5b60015460025410610511576040517f08c379a000000000000000000000000000000000000000000000000000000000815260040161050890610c7e565b60405180910390fd5b600015156007600084815260200190815260200160002060000160009054906101000a900460ff1615151461057b576040517f08c379a000000000000000000000000000000000000000000000000000000000815260040161057290610cea565b60405180910390fd5b6064600760008481526020019081526020016000206001018190555060016007600084815260200190815260200160002060000160006101000a81548160ff02191690831515021790555060016002546105d59190610d39565b6002819055508073ffffffffffffffffffffffffffffffffffffffff16827ffd3d4f3a51f458769bc1176785ecb8d94bcd4895e7b8671438af026fab206e764260405161062291906108ff565b60405180910390a35050565b600360009054906101000a900473ffffffffffffffffffffffffffffffffffffffff1673ffffffffffffffffffffffffffffffffffffffff163373ffffffffffffffffffffffffffffffffffffffff16146106be576040517f08c379a00000000000000000000000000000000000000000000000000000000081526004016106b590610aa8565b60405180910390fd5b60008111610701576040517f08c379a00000000000000000000000000000000000000000000000000000000081526004016106f890610db9565b60405180910390fd5b8173ffffffffffffffffffffffffffffffffffffffff163073ffffffffffffffffffffffffffffffffffffffff161461076f576040517f08c379a000000000000000000000000000000000000000000000000000000000815260040161076690610ba6565b60405180910390fd5b8060015461077d9190610d39565b6001819055505050565b600460009054906101000a900473ffffffffffffffffffffffffffffffffffffffff1681565b60076020528060005260406000206000915090508060000160009054906101000a900460ff16908060010154908060020160009054906101000a900460ff16905083565b600560009054906101000a900473ffffffffffffffffffffffffffffffffffffffff1681565b600080fd5b600073ffffffffffffffffffffffffffffffffffffffff82169050919050565b60006108478261081c565b9050919050565b6108578161083c565b811461086257600080fd5b50565b6000813590506108748161084e565b92915050565b6000819050919050565b61088d8161087a565b811461089857600080fd5b50565b6000813590506108aa81610884565b92915050565b600080604083850312156108c7576108c6610817565b5b60006108d585828601610865565b92505060206108e68582860161089b565b9150509250929050565b6108f98161087a565b82525050565b600060208201905061091460008301846108f0565b92915050565b6000602082840312156109305761092f610817565b5b600061093e84828501610865565b91505092915050565b6109508161083c565b82525050565b600060208201905061096b6000830184610947565b92915050565b60008115159050919050565b61098681610971565b82525050565b60006020820190506109a1600083018461097d565b92915050565b600080604083850312156109be576109bd610817565b5b60006109cc8582860161089b565b92505060206109dd85828601610865565b9150509250929050565b6000602082840312156109fd576109fc610817565b5b6000610a0b8482850161089b565b91505092915050565b6000606082019050610a29600083018661097d565b610a3660208301856108f0565b610a43604083018461097d565b949350505050565b600082825260208201905092915050565b7f4f6e6c7920476f7665726d656e7420417574686f726974790000000000000000600082015250565b6000610a92601883610a4b565b9150610a9d82610a5c565b602082019050919050565b60006020820190508181036000830152610ac181610a85565b9050919050565b7f416d6f756e74206f6620746f74616c2070726f7065727469657320697320677260008201527f6174657200000000000000000000000000000000000000000000000000000000602082015250565b6000610b24602483610a4b565b9150610b2f82610ac8565b604082019050919050565b60006020820190508181036000830152610b5381610b17565b9050919050565b7f57726f6e6720636f6e7472616374000000000000000000000000000000000000600082015250565b6000610b90600e83610a4b565b9150610b9b82610b5a565b602082019050919050565b60006020820190508181036000830152610bbf81610b83565b9050919050565b7f596f752061726520756e617574686f72697a6564000000000000000000000000600082015250565b6000610bfc601483610a4b565b9150610c0782610bc6565b602082019050919050565b60006020820190508181036000830152610c2b81610bef565b9050919050565b7f4c696d6974206578636565646564000000000000000000000000000000000000600082015250565b6000610c68600e83610a4b565b9150610c7382610c32565b602082019050919050565b60006020820190508181036000830152610c9781610c5b565b9050919050565b7f50726f706572747920616c726561647920657869737473000000000000000000600082015250565b6000610cd4601783610a4b565b9150610cdf82610c9e565b602082019050919050565b60006020820190508181036000830152610d0381610cc7565b9050919050565b7f4e487b7100000000000000000000000000000000000000000000000000000000600052601160045260246000fd5b6000610d448261087a565b9150610d4f8361087a565b9250828201905080821115610d6757610d66610d0a565b5b92915050565b7f416d6f756e74206d75737420626520677261746572207468656e207a65726f00600082015250565b6000610da3601f83610a4b565b9150610dae82610d6d565b602082019050919050565b60006020820190508181036000830152610dd281610d96565b905091905056fea264697066735822122054603c91fdd185296effb46d39a456cac72e450fecce76c94075409f4d6f46b164736f6c63430008120033",
  "linkReferences": {},
  "deployedLinkReferences": {}
}