{"contracts/LandInspector.sol":{"LandInspector":{"abi":[{"inputs":[{"internalType":"address","name":"_govermentAuthority","type":"address"}],"stateMutability":"nonpayable","type":"constructor"},{"anonymous":false,"inputs":[{"indexed":true,"internalType":"address","name":"LandInspectorWallet","type":"address"},{"indexed":true,"internalType":"uint256","name":"ID","type":"uint256"},{"indexed":false,"internalType":"uint256","name":"time","type":"uint256"}],"name":"addLandInspectorLogs","type":"event"},{"anonymous":false,"inputs":[{"indexed":false,"internalType":"address","name":"ContractAddress","type":"address"},{"indexed":false,"internalType":"string","name":"Name","type":"string"},{"indexed":false,"internalType":"uint256","name":"time","type":"uint256"}],"name":"addSocietyBlockLogs","type":"event"},{"anonymous":false,"inputs":[{"indexed":true,"internalType":"address","name":"LandInspectorWallet","type":"address"},{"indexed":true,"internalType":"uint256","name":"ID","type":"uint256"},{"indexed":false,"internalType":"uint256","name":"time","type":"uint256"}],"name":"removeLandInspectorLogs","type":"event"},{"inputs":[{"internalType":"address","name":"_landInspectorWallet","type":"address"},{"internalType":"uint256","name":"_id","type":"uint256"}],"name":"addLandInspector","outputs":[],"stateMutability":"nonpayable","type":"function"},{"inputs":[{"internalType":"uint256","name":"_propertyId","type":"uint256"},{"internalType":"string","name":"_societyName","type":"string"}],"name":"addNewProperty","outputs":[],"stateMutability":"nonpayable","type":"function"},{"inputs":[{"internalType":"address","name":"_contractAddress","type":"address"},{"internalType":"string","name":"_name","type":"string"}],"name":"addSocietyBlock","outputs":[],"stateMutability":"nonpayable","type":"function"},{"inputs":[{"internalType":"address","name":"_societyBlockAddress","type":"address"},{"internalType":"uint256","name":"_propertyId","type":"uint256"},{"internalType":"uint256","name":"_requestNumber","type":"uint256"},{"internalType":"uint256","name":"_ownerCnic","type":"uint256"},{"internalType":"uint256","name":"_buyerCnic","type":"uint256"}],"name":"approveTransferRequest","outputs":[],"stateMutability":"nonpayable","type":"function"},{"inputs":[{"internalType":"address","name":"_societyBlockAddress","type":"address"},{"internalType":"uint256","name":"_propertyId","type":"uint256"},{"internalType":"uint256","name":"_caseNumber","type":"uint256"},{"internalType":"uint256","name":"_verficationOTPCode","type":"uint256"}],"name":"executeReverseCase","outputs":[],"stateMutability":"nonpayable","type":"function"},{"inputs":[{"internalType":"address","name":"_landInspectorWallet","type":"address"},{"internalType":"uint256","name":"_id","type":"uint256"}],"name":"removeLandInspector","outputs":[],"stateMutability":"nonpayable","type":"function"},{"inputs":[{"internalType":"uint256","name":"_propertyId","type":"uint256"},{"internalType":"uint256","name":"_cnic","type":"uint256"},{"internalType":"uint256","name":"_sharesPercentage","type":"uint256"},{"internalType":"uint256","name":"_propertyTokensAmount","type":"uint256"},{"internalType":"string","name":"_areaName","type":"string"}],"name":"transferNewProperty","outputs":[],"stateMutability":"nonpayable","type":"function"}],"evm":{"bytecode":{"linkReferences":{},"object":"60806040523480156200001157600080fd5b5060405162001300380380620013008339818101604052810190620000379190620000e8565b806000806101000a81548173ffffffffffffffffffffffffffffffffffffffff021916908373ffffffffffffffffffffffffffffffffffffffff160217905550506200011a565b600080fd5b600073ffffffffffffffffffffffffffffffffffffffff82169050919050565b6000620000b08262000083565b9050919050565b620000c281620000a3565b8114620000ce57600080fd5b50565b600081519050620000e281620000b7565b92915050565b6000602082840312156200010157620001006200007e565b5b60006200011184828501620000d1565b91505092915050565b6111d6806200012a6000396000f3fe608060405234801561001057600080fd5b506004361061007d5760003560e01c80633ef62b661161005b5780633ef62b66146100d65780635edd0540146100f25780637aa1216c1461010e578063d5baaf881461012a5761007d565b80631004c78a146100825780631237ad7b1461009e5780632c1b1eea146100ba575b600080fd5b61009c60048036038101906100979190610bef565b610146565b005b6100b860048036038101906100b39190610ca9565b61028a565b005b6100d460048036038101906100cf9190610ce9565b61044a565b005b6100f060048036038101906100eb9190610ca9565b610556565b005b61010c60048036038101906101079190610d50565b6106d9565b005b61012860048036038101906101239190610dcb565b6107e8565b005b610144600480360381019061013f9190610e62565b610935565b005b600260003373ffffffffffffffffffffffffffffffffffffffff1673ffffffffffffffffffffffffffffffffffffffff16815260200190815260200160002060010160009054906101000a900460ff166101d5576040517f08c379a00000000000000000000000000000000000000000000000000000000081526004016101cc90610f1b565b60405180910390fd5b60006001826040516101e79190610fac565b908152602001604051809103902060009054906101000a900473ffffffffffffffffffffffffffffffffffffffff1690508073ffffffffffffffffffffffffffffffffffffffff1663bbee631184336040518363ffffffff1660e01b8152600401610253929190610fe1565b600060405180830381600087803b15801561026d57600080fd5b505af1158015610281573d6000803e3d6000fd5b50505050505050565b60008054906101000a900473ffffffffffffffffffffffffffffffffffffffff1673ffffffffffffffffffffffffffffffffffffffff163373ffffffffffffffffffffffffffffffffffffffff1614610318576040517f08c379a000000000000000000000000000000000000000000000000000000000815260040161030f90610f1b565b60405180910390fd5b600260008373ffffffffffffffffffffffffffffffffffffffff1673ffffffffffffffffffffffffffffffffffffffff16815260200190815260200160002060000154811461039c576040517f08c379a000000000000000000000000000000000000000000000000000000000815260040161039390611056565b60405180910390fd5b6000600260008473ffffffffffffffffffffffffffffffffffffffff1673ffffffffffffffffffffffffffffffffffffffff16815260200190815260200160002060010160006101000a81548160ff021916908315150217905550808273ffffffffffffffffffffffffffffffffffffffff167f689e8551d09cbfd7fd364ffdf89628af1bc1b631c6911c94660713b3f50a8ae54260405161043e9190611076565b60405180910390a35050565b600260003373ffffffffffffffffffffffffffffffffffffffff1673ffffffffffffffffffffffffffffffffffffffff16815260200190815260200160002060010160009054906101000a900460ff166104d9576040517f08c379a00000000000000000000000000000000000000000000000000000000081526004016104d090610f1b565b60405180910390fd5b60008490508073ffffffffffffffffffffffffffffffffffffffff16633dcc0835858585336040518563ffffffff1660e01b815260040161051d9493929190611091565b600060405180830381600087803b15801561053757600080fd5b505af115801561054b573d6000803e3d6000fd5b505050505050505050565b60008054906101000a900473ffffffffffffffffffffffffffffffffffffffff1673ffffffffffffffffffffffffffffffffffffffff163373ffffffffffffffffffffffffffffffffffffffff16146105e4576040517f08c379a00000000000000000000000000000000000000000000000000000000081526004016105db90610f1b565b60405180910390fd5b80600260008473ffffffffffffffffffffffffffffffffffffffff1673ffffffffffffffffffffffffffffffffffffffff168152602001908152602001600020600001819055506001600260008473ffffffffffffffffffffffffffffffffffffffff1673ffffffffffffffffffffffffffffffffffffffff16815260200190815260200160002060010160006101000a81548160ff021916908315150217905550808273ffffffffffffffffffffffffffffffffffffffff167fe52d4bcba300072363266781343b190c67680f1eb0f79ceb34922788645f9706426040516106cd9190611076565b60405180910390a35050565b600260003373ffffffffffffffffffffffffffffffffffffffff1673ffffffffffffffffffffffffffffffffffffffff16815260200190815260200160002060010160009054906101000a900460ff16610768576040517f08c379a000000000000000000000000000000000000000000000000000000000815260040161075f90610f1b565b60405180910390fd5b60008590508073ffffffffffffffffffffffffffffffffffffffff1663fd94e0eb86868686336040518663ffffffff1660e01b81526004016107ae9594939291906110d6565b600060405180830381600087803b1580156107c857600080fd5b505af11580156107dc573d6000803e3d6000fd5b50505050505050505050565b600260003373ffffffffffffffffffffffffffffffffffffffff1673ffffffffffffffffffffffffffffffffffffffff16815260200190815260200160002060010160009054906101000a900460ff16610877576040517f08c379a000000000000000000000000000000000000000000000000000000000815260040161086e90610f1b565b60405180910390fd5b60006001826040516108899190610fac565b908152602001604051809103902060009054906101000a900473ffffffffffffffffffffffffffffffffffffffff1690508073ffffffffffffffffffffffffffffffffffffffff16635cc2531387878787336040518663ffffffff1660e01b81526004016108fb9594939291906110d6565b600060405180830381600087803b15801561091557600080fd5b505af1158015610929573d6000803e3d6000fd5b50505050505050505050565b60008054906101000a900473ffffffffffffffffffffffffffffffffffffffff1673ffffffffffffffffffffffffffffffffffffffff163373ffffffffffffffffffffffffffffffffffffffff16146109c3576040517f08c379a00000000000000000000000000000000000000000000000000000000081526004016109ba90610f1b565b60405180910390fd5b816001826040516109d49190610fac565b908152602001604051809103902060006101000a81548173ffffffffffffffffffffffffffffffffffffffff021916908373ffffffffffffffffffffffffffffffffffffffff1602179055507f5999bd57b9975c6b48305c76e0fa01586f4f27882b4b1f4006d1676a7b6589e4828242604051610a5393929190611162565b60405180910390a15050565b6000604051905090565b600080fd5b600080fd5b6000819050919050565b610a8681610a73565b8114610a9157600080fd5b50565b600081359050610aa381610a7d565b92915050565b600080fd5b600080fd5b6000601f19601f8301169050919050565b7f4e487b7100000000000000000000000000000000000000000000000000000000600052604160045260246000fd5b610afc82610ab3565b810181811067ffffffffffffffff82111715610b1b57610b1a610ac4565b5b80604052505050565b6000610b2e610a5f565b9050610b3a8282610af3565b919050565b600067ffffffffffffffff821115610b5a57610b59610ac4565b5b610b6382610ab3565b9050602081019050919050565b82818337600083830152505050565b6000610b92610b8d84610b3f565b610b24565b905082815260208101848484011115610bae57610bad610aae565b5b610bb9848285610b70565b509392505050565b600082601f830112610bd657610bd5610aa9565b5b8135610be6848260208601610b7f565b91505092915050565b60008060408385031215610c0657610c05610a69565b5b6000610c1485828601610a94565b925050602083013567ffffffffffffffff811115610c3557610c34610a6e565b5b610c4185828601610bc1565b9150509250929050565b600073ffffffffffffffffffffffffffffffffffffffff82169050919050565b6000610c7682610c4b565b9050919050565b610c8681610c6b565b8114610c9157600080fd5b50565b600081359050610ca381610c7d565b92915050565b60008060408385031215610cc057610cbf610a69565b5b6000610cce85828601610c94565b9250506020610cdf85828601610a94565b9150509250929050565b60008060008060808587031215610d0357610d02610a69565b5b6000610d1187828801610c94565b9450506020610d2287828801610a94565b9350506040610d3387828801610a94565b9250506060610d4487828801610a94565b91505092959194509250565b600080600080600060a08688031215610d6c57610d6b610a69565b5b6000610d7a88828901610c94565b9550506020610d8b88828901610a94565b9450506040610d9c88828901610a94565b9350506060610dad88828901610a94565b9250506080610dbe88828901610a94565b9150509295509295909350565b600080600080600060a08688031215610de757610de6610a69565b5b6000610df588828901610a94565b9550506020610e0688828901610a94565b9450506040610e1788828901610a94565b9350506060610e2888828901610a94565b925050608086013567ffffffffffffffff811115610e4957610e48610a6e565b5b610e5588828901610bc1565b9150509295509295909350565b60008060408385031215610e7957610e78610a69565b5b6000610e8785828601610c94565b925050602083013567ffffffffffffffff811115610ea857610ea7610a6e565b5b610eb485828601610bc1565b9150509250929050565b600082825260208201905092915050565b7f556e617574686f72697a65642100000000000000000000000000000000000000600082015250565b6000610f05600d83610ebe565b9150610f1082610ecf565b602082019050919050565b60006020820190508181036000830152610f3481610ef8565b9050919050565b600081519050919050565b600081905092915050565b60005b83811015610f6f578082015181840152602081019050610f54565b60008484015250505050565b6000610f8682610f3b565b610f908185610f46565b9350610fa0818560208601610f51565b80840191505092915050565b6000610fb88284610f7b565b915081905092915050565b610fcc81610a73565b82525050565b610fdb81610c6b565b82525050565b6000604082019050610ff66000830185610fc3565b6110036020830184610fd2565b9392505050565b7f57726f6e6720496e73706563746f722049440000000000000000000000000000600082015250565b6000611040601283610ebe565b915061104b8261100a565b602082019050919050565b6000602082019050818103600083015261106f81611033565b9050919050565b600060208201905061108b6000830184610fc3565b92915050565b60006080820190506110a66000830187610fc3565b6110b36020830186610fc3565b6110c06040830185610fc3565b6110cd6060830184610fd2565b95945050505050565b600060a0820190506110eb6000830188610fc3565b6110f86020830187610fc3565b6111056040830186610fc3565b6111126060830185610fc3565b61111f6080830184610fd2565b9695505050505050565b600061113482610f3b565b61113e8185610ebe565b935061114e818560208601610f51565b61115781610ab3565b840191505092915050565b60006060820190506111776000830186610fd2565b81810360208301526111898185611129565b90506111986040830184610fc3565b94935050505056fea264697066735822122027eb787c8e9e29a79a339600f22cff723a46f7f6482d29fff4528738cab11edd64736f6c63430008120033","opcodes":"PUSH1 0x80 PUSH1 0x40 MSTORE CALLVALUE DUP1 ISZERO PUSH3 0x11 JUMPI PUSH1 0x0 DUP1 REVERT JUMPDEST POP PUSH1 0x40 MLOAD PUSH3 0x1300 CODESIZE SUB DUP1 PUSH3 0x1300 DUP4 CODECOPY DUP2 DUP2 ADD PUSH1 0x40 MSTORE DUP2 ADD SWAP1 PUSH3 0x37 SWAP2 SWAP1 PUSH3 0xE8 JUMP JUMPDEST DUP1 PUSH1 0x0 DUP1 PUSH2 0x100 EXP DUP2 SLOAD DUP2 PUSH20 0xFFFFFFFFFFFFFFFFFFFFFFFFFFFFFFFFFFFFFFFF MUL NOT AND SWAP1 DUP4 PUSH20 0xFFFFFFFFFFFFFFFFFFFFFFFFFFFFFFFFFFFFFFFF AND MUL OR SWAP1 SSTORE POP POP PUSH3 0x11A JUMP JUMPDEST PUSH1 0x0 DUP1 REVERT JUMPDEST PUSH1 0x0 PUSH20 0xFFFFFFFFFFFFFFFFFFFFFFFFFFFFFFFFFFFFFFFF DUP3 AND SWAP1 POP SWAP2 SWAP1 POP JUMP JUMPDEST PUSH1 0x0 PUSH3 0xB0 DUP3 PUSH3 0x83 JUMP JUMPDEST SWAP1 POP SWAP2 SWAP1 POP JUMP JUMPDEST PUSH3 0xC2 DUP2 PUSH3 0xA3 JUMP JUMPDEST DUP2 EQ PUSH3 0xCE JUMPI PUSH1 0x0 DUP1 REVERT JUMPDEST POP JUMP JUMPDEST PUSH1 0x0 DUP2 MLOAD SWAP1 POP PUSH3 0xE2 DUP2 PUSH3 0xB7 JUMP JUMPDEST SWAP3 SWAP2 POP POP JUMP JUMPDEST PUSH1 0x0 PUSH1 0x20 DUP3 DUP5 SUB SLT ISZERO PUSH3 0x101 JUMPI PUSH3 0x100 PUSH3 0x7E JUMP JUMPDEST JUMPDEST PUSH1 0x0 PUSH3 0x111 DUP5 DUP3 DUP6 ADD PUSH3 0xD1 JUMP JUMPDEST SWAP2 POP POP SWAP3 SWAP2 POP POP JUMP JUMPDEST PUSH2 0x11D6 DUP1 PUSH3 0x12A PUSH1 0x0 CODECOPY PUSH1 0x0 RETURN INVALID PUSH1 0x80 PUSH1 0x40 MSTORE CALLVALUE DUP1 ISZERO PUSH2 0x10 JUMPI PUSH1 0x0 DUP1 REVERT JUMPDEST POP PUSH1 0x4 CALLDATASIZE LT PUSH2 0x7D JUMPI PUSH1 0x0 CALLDATALOAD PUSH1 0xE0 SHR DUP1 PUSH4 0x3EF62B66 GT PUSH2 0x5B JUMPI DUP1 PUSH4 0x3EF62B66 EQ PUSH2 0xD6 JUMPI DUP1 PUSH4 0x5EDD0540 EQ PUSH2 0xF2 JUMPI DUP1 PUSH4 0x7AA1216C EQ PUSH2 0x10E JUMPI DUP1 PUSH4 0xD5BAAF88 EQ PUSH2 0x12A JUMPI PUSH2 0x7D JUMP JUMPDEST DUP1 PUSH4 0x1004C78A EQ PUSH2 0x82 JUMPI DUP1 PUSH4 0x1237AD7B EQ PUSH2 0x9E JUMPI DUP1 PUSH4 0x2C1B1EEA EQ PUSH2 0xBA JUMPI JUMPDEST PUSH1 0x0 DUP1 REVERT JUMPDEST PUSH2 0x9C PUSH1 0x4 DUP1 CALLDATASIZE SUB DUP2 ADD SWAP1 PUSH2 0x97 SWAP2 SWAP1 PUSH2 0xBEF JUMP JUMPDEST PUSH2 0x146 JUMP JUMPDEST STOP JUMPDEST PUSH2 0xB8 PUSH1 0x4 DUP1 CALLDATASIZE SUB DUP2 ADD SWAP1 PUSH2 0xB3 SWAP2 SWAP1 PUSH2 0xCA9 JUMP JUMPDEST PUSH2 0x28A JUMP JUMPDEST STOP JUMPDEST PUSH2 0xD4 PUSH1 0x4 DUP1 CALLDATASIZE SUB DUP2 ADD SWAP1 PUSH2 0xCF SWAP2 SWAP1 PUSH2 0xCE9 JUMP JUMPDEST PUSH2 0x44A JUMP JUMPDEST STOP JUMPDEST PUSH2 0xF0 PUSH1 0x4 DUP1 CALLDATASIZE SUB DUP2 ADD SWAP1 PUSH2 0xEB SWAP2 SWAP1 PUSH2 0xCA9 JUMP JUMPDEST PUSH2 0x556 JUMP JUMPDEST STOP JUMPDEST PUSH2 0x10C PUSH1 0x4 DUP1 CALLDATASIZE SUB DUP2 ADD SWAP1 PUSH2 0x107 SWAP2 SWAP1 PUSH2 0xD50 JUMP JUMPDEST PUSH2 0x6D9 JUMP JUMPDEST STOP JUMPDEST PUSH2 0x128 PUSH1 0x4 DUP1 CALLDATASIZE SUB DUP2 ADD SWAP1 PUSH2 0x123 SWAP2 SWAP1 PUSH2 0xDCB JUMP JUMPDEST PUSH2 0x7E8 JUMP JUMPDEST STOP JUMPDEST PUSH2 0x144 PUSH1 0x4 DUP1 CALLDATASIZE SUB DUP2 ADD SWAP1 PUSH2 0x13F SWAP2 SWAP1 PUSH2 0xE62 JUMP JUMPDEST PUSH2 0x935 JUMP JUMPDEST STOP JUMPDEST PUSH1 0x2 PUSH1 0x0 CALLER PUSH20 0xFFFFFFFFFFFFFFFFFFFFFFFFFFFFFFFFFFFFFFFF AND PUSH20 0xFFFFFFFFFFFFFFFFFFFFFFFFFFFFFFFFFFFFFFFF AND DUP2 MSTORE PUSH1 0x20 ADD SWAP1 DUP2 MSTORE PUSH1 0x20 ADD PUSH1 0x0 KECCAK256 PUSH1 0x1 ADD PUSH1 0x0 SWAP1 SLOAD SWAP1 PUSH2 0x100 EXP SWAP1 DIV PUSH1 0xFF AND PUSH2 0x1D5 JUMPI PUSH1 0x40 MLOAD PUSH32 0x8C379A000000000000000000000000000000000000000000000000000000000 DUP2 MSTORE PUSH1 0x4 ADD PUSH2 0x1CC SWAP1 PUSH2 0xF1B JUMP JUMPDEST PUSH1 0x40 MLOAD DUP1 SWAP2 SUB SWAP1 REVERT JUMPDEST PUSH1 0x0 PUSH1 0x1 DUP3 PUSH1 0x40 MLOAD PUSH2 0x1E7 SWAP2 SWAP1 PUSH2 0xFAC JUMP JUMPDEST SWAP1 DUP2 MSTORE PUSH1 0x20 ADD PUSH1 0x40 MLOAD DUP1 SWAP2 SUB SWAP1 KECCAK256 PUSH1 0x0 SWAP1 SLOAD SWAP1 PUSH2 0x100 EXP SWAP1 DIV PUSH20 0xFFFFFFFFFFFFFFFFFFFFFFFFFFFFFFFFFFFFFFFF AND SWAP1 POP DUP1 PUSH20 0xFFFFFFFFFFFFFFFFFFFFFFFFFFFFFFFFFFFFFFFF AND PUSH4 0xBBEE6311 DUP5 CALLER PUSH1 0x40 MLOAD DUP4 PUSH4 0xFFFFFFFF AND PUSH1 0xE0 SHL DUP2 MSTORE PUSH1 0x4 ADD PUSH2 0x253 SWAP3 SWAP2 SWAP1 PUSH2 0xFE1 JUMP JUMPDEST PUSH1 0x0 PUSH1 0x40 MLOAD DUP1 DUP4 SUB DUP2 PUSH1 0x0 DUP8 DUP1 EXTCODESIZE ISZERO DUP1 ISZERO PUSH2 0x26D JUMPI PUSH1 0x0 DUP1 REVERT JUMPDEST POP GAS CALL ISZERO DUP1 ISZERO PUSH2 0x281 JUMPI RETURNDATASIZE PUSH1 0x0 DUP1 RETURNDATACOPY RETURNDATASIZE PUSH1 0x0 REVERT JUMPDEST POP POP POP POP POP POP POP JUMP JUMPDEST PUSH1 0x0 DUP1 SLOAD SWAP1 PUSH2 0x100 EXP SWAP1 DIV PUSH20 0xFFFFFFFFFFFFFFFFFFFFFFFFFFFFFFFFFFFFFFFF AND PUSH20 0xFFFFFFFFFFFFFFFFFFFFFFFFFFFFFFFFFFFFFFFF AND CALLER PUSH20 0xFFFFFFFFFFFFFFFFFFFFFFFFFFFFFFFFFFFFFFFF AND EQ PUSH2 0x318 JUMPI PUSH1 0x40 MLOAD PUSH32 0x8C379A000000000000000000000000000000000000000000000000000000000 DUP2 MSTORE PUSH1 0x4 ADD PUSH2 0x30F SWAP1 PUSH2 0xF1B JUMP JUMPDEST PUSH1 0x40 MLOAD DUP1 SWAP2 SUB SWAP1 REVERT JUMPDEST PUSH1 0x2 PUSH1 0x0 DUP4 PUSH20 0xFFFFFFFFFFFFFFFFFFFFFFFFFFFFFFFFFFFFFFFF AND PUSH20 0xFFFFFFFFFFFFFFFFFFFFFFFFFFFFFFFFFFFFFFFF AND DUP2 MSTORE PUSH1 0x20 ADD SWAP1 DUP2 MSTORE PUSH1 0x20 ADD PUSH1 0x0 KECCAK256 PUSH1 0x0 ADD SLOAD DUP2 EQ PUSH2 0x39C JUMPI PUSH1 0x40 MLOAD PUSH32 0x8C379A000000000000000000000000000000000000000000000000000000000 DUP2 MSTORE PUSH1 0x4 ADD PUSH2 0x393 SWAP1 PUSH2 0x1056 JUMP JUMPDEST PUSH1 0x40 MLOAD DUP1 SWAP2 SUB SWAP1 REVERT JUMPDEST PUSH1 0x0 PUSH1 0x2 PUSH1 0x0 DUP5 PUSH20 0xFFFFFFFFFFFFFFFFFFFFFFFFFFFFFFFFFFFFFFFF AND PUSH20 0xFFFFFFFFFFFFFFFFFFFFFFFFFFFFFFFFFFFFFFFF AND DUP2 MSTORE PUSH1 0x20 ADD SWAP1 DUP2 MSTORE PUSH1 0x20 ADD PUSH1 0x0 KECCAK256 PUSH1 0x1 ADD PUSH1 0x0 PUSH2 0x100 EXP DUP2 SLOAD DUP2 PUSH1 0xFF MUL NOT AND SWAP1 DUP4 ISZERO ISZERO MUL OR SWAP1 SSTORE POP DUP1 DUP3 PUSH20 0xFFFFFFFFFFFFFFFFFFFFFFFFFFFFFFFFFFFFFFFF AND PUSH32 0x689E8551D09CBFD7FD364FFDF89628AF1BC1B631C6911C94660713B3F50A8AE5 TIMESTAMP PUSH1 0x40 MLOAD PUSH2 0x43E SWAP2 SWAP1 PUSH2 0x1076 JUMP JUMPDEST PUSH1 0x40 MLOAD DUP1 SWAP2 SUB SWAP1 LOG3 POP POP JUMP JUMPDEST PUSH1 0x2 PUSH1 0x0 CALLER PUSH20 0xFFFFFFFFFFFFFFFFFFFFFFFFFFFFFFFFFFFFFFFF AND PUSH20 0xFFFFFFFFFFFFFFFFFFFFFFFFFFFFFFFFFFFFFFFF AND DUP2 MSTORE PUSH1 0x20 ADD SWAP1 DUP2 MSTORE PUSH1 0x20 ADD PUSH1 0x0 KECCAK256 PUSH1 0x1 ADD PUSH1 0x0 SWAP1 SLOAD SWAP1 PUSH2 0x100 EXP SWAP1 DIV PUSH1 0xFF AND PUSH2 0x4D9 JUMPI PUSH1 0x40 MLOAD PUSH32 0x8C379A000000000000000000000000000000000000000000000000000000000 DUP2 MSTORE PUSH1 0x4 ADD PUSH2 0x4D0 SWAP1 PUSH2 0xF1B JUMP JUMPDEST PUSH1 0x40 MLOAD DUP1 SWAP2 SUB SWAP1 REVERT JUMPDEST PUSH1 0x0 DUP5 SWAP1 POP DUP1 PUSH20 0xFFFFFFFFFFFFFFFFFFFFFFFFFFFFFFFFFFFFFFFF AND PUSH4 0x3DCC0835 DUP6 DUP6 DUP6 CALLER PUSH1 0x40 MLOAD DUP6 PUSH4 0xFFFFFFFF AND PUSH1 0xE0 SHL DUP2 MSTORE PUSH1 0x4 ADD PUSH2 0x51D SWAP5 SWAP4 SWAP3 SWAP2 SWAP1 PUSH2 0x1091 JUMP JUMPDEST PUSH1 0x0 PUSH1 0x40 MLOAD DUP1 DUP4 SUB DUP2 PUSH1 0x0 DUP8 DUP1 EXTCODESIZE ISZERO DUP1 ISZERO PUSH2 0x537 JUMPI PUSH1 0x0 DUP1 REVERT JUMPDEST POP GAS CALL ISZERO DUP1 ISZERO PUSH2 0x54B JUMPI RETURNDATASIZE PUSH1 0x0 DUP1 RETURNDATACOPY RETURNDATASIZE PUSH1 0x0 REVERT JUMPDEST POP POP POP POP POP POP POP POP POP JUMP JUMPDEST PUSH1 0x0 DUP1 SLOAD SWAP1 PUSH2 0x100 EXP SWAP1 DIV PUSH20 0xFFFFFFFFFFFFFFFFFFFFFFFFFFFFFFFFFFFFFFFF AND PUSH20 0xFFFFFFFFFFFFFFFFFFFFFFFFFFFFFFFFFFFFFFFF AND CALLER PUSH20 0xFFFFFFFFFFFFFFFFFFFFFFFFFFFFFFFFFFFFFFFF AND EQ PUSH2 0x5E4 JUMPI PUSH1 0x40 MLOAD PUSH32 0x8C379A000000000000000000000000000000000000000000000000000000000 DUP2 MSTORE PUSH1 0x4 ADD PUSH2 0x5DB SWAP1 PUSH2 0xF1B JUMP JUMPDEST PUSH1 0x40 MLOAD DUP1 SWAP2 SUB SWAP1 REVERT JUMPDEST DUP1 PUSH1 0x2 PUSH1 0x0 DUP5 PUSH20 0xFFFFFFFFFFFFFFFFFFFFFFFFFFFFFFFFFFFFFFFF AND PUSH20 0xFFFFFFFFFFFFFFFFFFFFFFFFFFFFFFFFFFFFFFFF AND DUP2 MSTORE PUSH1 0x20 ADD SWAP1 DUP2 MSTORE PUSH1 0x20 ADD PUSH1 0x0 KECCAK256 PUSH1 0x0 ADD DUP2 SWAP1 SSTORE POP PUSH1 0x1 PUSH1 0x2 PUSH1 0x0 DUP5 PUSH20 0xFFFFFFFFFFFFFFFFFFFFFFFFFFFFFFFFFFFFFFFF AND PUSH20 0xFFFFFFFFFFFFFFFFFFFFFFFFFFFFFFFFFFFFFFFF AND DUP2 MSTORE PUSH1 0x20 ADD SWAP1 DUP2 MSTORE PUSH1 0x20 ADD PUSH1 0x0 KECCAK256 PUSH1 0x1 ADD PUSH1 0x0 PUSH2 0x100 EXP DUP2 SLOAD DUP2 PUSH1 0xFF MUL NOT AND SWAP1 DUP4 ISZERO ISZERO MUL OR SWAP1 SSTORE POP DUP1 DUP3 PUSH20 0xFFFFFFFFFFFFFFFFFFFFFFFFFFFFFFFFFFFFFFFF AND PUSH32 0xE52D4BCBA300072363266781343B190C67680F1EB0F79CEB34922788645F9706 TIMESTAMP PUSH1 0x40 MLOAD PUSH2 0x6CD SWAP2 SWAP1 PUSH2 0x1076 JUMP JUMPDEST PUSH1 0x40 MLOAD DUP1 SWAP2 SUB SWAP1 LOG3 POP POP JUMP JUMPDEST PUSH1 0x2 PUSH1 0x0 CALLER PUSH20 0xFFFFFFFFFFFFFFFFFFFFFFFFFFFFFFFFFFFFFFFF AND PUSH20 0xFFFFFFFFFFFFFFFFFFFFFFFFFFFFFFFFFFFFFFFF AND DUP2 MSTORE PUSH1 0x20 ADD SWAP1 DUP2 MSTORE PUSH1 0x20 ADD PUSH1 0x0 KECCAK256 PUSH1 0x1 ADD PUSH1 0x0 SWAP1 SLOAD SWAP1 PUSH2 0x100 EXP SWAP1 DIV PUSH1 0xFF AND PUSH2 0x768 JUMPI PUSH1 0x40 MLOAD PUSH32 0x8C379A000000000000000000000000000000000000000000000000000000000 DUP2 MSTORE PUSH1 0x4 ADD PUSH2 0x75F SWAP1 PUSH2 0xF1B JUMP JUMPDEST PUSH1 0x40 MLOAD DUP1 SWAP2 SUB SWAP1 REVERT JUMPDEST PUSH1 0x0 DUP6 SWAP1 POP DUP1 PUSH20 0xFFFFFFFFFFFFFFFFFFFFFFFFFFFFFFFFFFFFFFFF AND PUSH4 0xFD94E0EB DUP7 DUP7 DUP7 DUP7 CALLER PUSH1 0x40 MLOAD DUP7 PUSH4 0xFFFFFFFF AND PUSH1 0xE0 SHL DUP2 MSTORE PUSH1 0x4 ADD PUSH2 0x7AE SWAP6 SWAP5 SWAP4 SWAP3 SWAP2 SWAP1 PUSH2 0x10D6 JUMP JUMPDEST PUSH1 0x0 PUSH1 0x40 MLOAD DUP1 DUP4 SUB DUP2 PUSH1 0x0 DUP8 DUP1 EXTCODESIZE ISZERO DUP1 ISZERO PUSH2 0x7C8 JUMPI PUSH1 0x0 DUP1 REVERT JUMPDEST POP GAS CALL ISZERO DUP1 ISZERO PUSH2 0x7DC JUMPI RETURNDATASIZE PUSH1 0x0 DUP1 RETURNDATACOPY RETURNDATASIZE PUSH1 0x0 REVERT JUMPDEST POP POP POP POP POP POP POP POP POP POP JUMP JUMPDEST PUSH1 0x2 PUSH1 0x0 CALLER PUSH20 0xFFFFFFFFFFFFFFFFFFFFFFFFFFFFFFFFFFFFFFFF AND PUSH20 0xFFFFFFFFFFFFFFFFFFFFFFFFFFFFFFFFFFFFFFFF AND DUP2 MSTORE PUSH1 0x20 ADD SWAP1 DUP2 MSTORE PUSH1 0x20 ADD PUSH1 0x0 KECCAK256 PUSH1 0x1 ADD PUSH1 0x0 SWAP1 SLOAD SWAP1 PUSH2 0x100 EXP SWAP1 DIV PUSH1 0xFF AND PUSH2 0x877 JUMPI PUSH1 0x40 MLOAD PUSH32 0x8C379A000000000000000000000000000000000000000000000000000000000 DUP2 MSTORE PUSH1 0x4 ADD PUSH2 0x86E SWAP1 PUSH2 0xF1B JUMP JUMPDEST PUSH1 0x40 MLOAD DUP1 SWAP2 SUB SWAP1 REVERT JUMPDEST PUSH1 0x0 PUSH1 0x1 DUP3 PUSH1 0x40 MLOAD PUSH2 0x889 SWAP2 SWAP1 PUSH2 0xFAC JUMP JUMPDEST SWAP1 DUP2 MSTORE PUSH1 0x20 ADD PUSH1 0x40 MLOAD DUP1 SWAP2 SUB SWAP1 KECCAK256 PUSH1 0x0 SWAP1 SLOAD SWAP1 PUSH2 0x100 EXP SWAP1 DIV PUSH20 0xFFFFFFFFFFFFFFFFFFFFFFFFFFFFFFFFFFFFFFFF AND SWAP1 POP DUP1 PUSH20 0xFFFFFFFFFFFFFFFFFFFFFFFFFFFFFFFFFFFFFFFF AND PUSH4 0x5CC25313 DUP8 DUP8 DUP8 DUP8 CALLER PUSH1 0x40 MLOAD DUP7 PUSH4 0xFFFFFFFF AND PUSH1 0xE0 SHL DUP2 MSTORE PUSH1 0x4 ADD PUSH2 0x8FB SWAP6 SWAP5 SWAP4 SWAP3 SWAP2 SWAP1 PUSH2 0x10D6 JUMP JUMPDEST PUSH1 0x0 PUSH1 0x40 MLOAD DUP1 DUP4 SUB DUP2 PUSH1 0x0 DUP8 DUP1 EXTCODESIZE ISZERO DUP1 ISZERO PUSH2 0x915 JUMPI PUSH1 0x0 DUP1 REVERT JUMPDEST POP GAS CALL ISZERO DUP1 ISZERO PUSH2 0x929 JUMPI RETURNDATASIZE PUSH1 0x0 DUP1 RETURNDATACOPY RETURNDATASIZE PUSH1 0x0 REVERT JUMPDEST POP POP POP POP POP POP POP POP POP POP JUMP JUMPDEST PUSH1 0x0 DUP1 SLOAD SWAP1 PUSH2 0x100 EXP SWAP1 DIV PUSH20 0xFFFFFFFFFFFFFFFFFFFFFFFFFFFFFFFFFFFFFFFF AND PUSH20 0xFFFFFFFFFFFFFFFFFFFFFFFFFFFFFFFFFFFFFFFF AND CALLER PUSH20 0xFFFFFFFFFFFFFFFFFFFFFFFFFFFFFFFFFFFFFFFF AND EQ PUSH2 0x9C3 JUMPI PUSH1 0x40 MLOAD PUSH32 0x8C379A000000000000000000000000000000000000000000000000000000000 DUP2 MSTORE PUSH1 0x4 ADD PUSH2 0x9BA SWAP1 PUSH2 0xF1B JUMP JUMPDEST PUSH1 0x40 MLOAD DUP1 SWAP2 SUB SWAP1 REVERT JUMPDEST DUP2 PUSH1 0x1 DUP3 PUSH1 0x40 MLOAD PUSH2 0x9D4 SWAP2 SWAP1 PUSH2 0xFAC JUMP JUMPDEST SWAP1 DUP2 MSTORE PUSH1 0x20 ADD PUSH1 0x40 MLOAD DUP1 SWAP2 SUB SWAP1 KECCAK256 PUSH1 0x0 PUSH2 0x100 EXP DUP2 SLOAD DUP2 PUSH20 0xFFFFFFFFFFFFFFFFFFFFFFFFFFFFFFFFFFFFFFFF MUL NOT AND SWAP1 DUP4 PUSH20 0xFFFFFFFFFFFFFFFFFFFFFFFFFFFFFFFFFFFFFFFF AND MUL OR SWAP1 SSTORE POP PUSH32 0x5999BD57B9975C6B48305C76E0FA01586F4F27882B4B1F4006D1676A7B6589E4 DUP3 DUP3 TIMESTAMP PUSH1 0x40 MLOAD PUSH2 0xA53 SWAP4 SWAP3 SWAP2 SWAP1 PUSH2 0x1162 JUMP JUMPDEST PUSH1 0x40 MLOAD DUP1 SWAP2 SUB SWAP1 LOG1 POP POP JUMP JUMPDEST PUSH1 0x0 PUSH1 0x40 MLOAD SWAP1 POP SWAP1 JUMP JUMPDEST PUSH1 0x0 DUP1 REVERT JUMPDEST PUSH1 0x0 DUP1 REVERT JUMPDEST PUSH1 0x0 DUP2 SWAP1 POP SWAP2 SWAP1 POP JUMP JUMPDEST PUSH2 0xA86 DUP2 PUSH2 0xA73 JUMP JUMPDEST DUP2 EQ PUSH2 0xA91 JUMPI PUSH1 0x0 DUP1 REVERT JUMPDEST POP JUMP JUMPDEST PUSH1 0x0 DUP2 CALLDATALOAD SWAP1 POP PUSH2 0xAA3 DUP2 PUSH2 0xA7D JUMP JUMPDEST SWAP3 SWAP2 POP POP JUMP JUMPDEST PUSH1 0x0 DUP1 REVERT JUMPDEST PUSH1 0x0 DUP1 REVERT JUMPDEST PUSH1 0x0 PUSH1 0x1F NOT PUSH1 0x1F DUP4 ADD AND SWAP1 POP SWAP2 SWAP1 POP JUMP JUMPDEST PUSH32 0x4E487B7100000000000000000000000000000000000000000000000000000000 PUSH1 0x0 MSTORE PUSH1 0x41 PUSH1 0x4 MSTORE PUSH1 0x24 PUSH1 0x0 REVERT JUMPDEST PUSH2 0xAFC DUP3 PUSH2 0xAB3 JUMP JUMPDEST DUP2 ADD DUP2 DUP2 LT PUSH8 0xFFFFFFFFFFFFFFFF DUP3 GT OR ISZERO PUSH2 0xB1B JUMPI PUSH2 0xB1A PUSH2 0xAC4 JUMP JUMPDEST JUMPDEST DUP1 PUSH1 0x40 MSTORE POP POP POP JUMP JUMPDEST PUSH1 0x0 PUSH2 0xB2E PUSH2 0xA5F JUMP JUMPDEST SWAP1 POP PUSH2 0xB3A DUP3 DUP3 PUSH2 0xAF3 JUMP JUMPDEST SWAP2 SWAP1 POP JUMP JUMPDEST PUSH1 0x0 PUSH8 0xFFFFFFFFFFFFFFFF DUP3 GT ISZERO PUSH2 0xB5A JUMPI PUSH2 0xB59 PUSH2 0xAC4 JUMP JUMPDEST JUMPDEST PUSH2 0xB63 DUP3 PUSH2 0xAB3 JUMP JUMPDEST SWAP1 POP PUSH1 0x20 DUP2 ADD SWAP1 POP SWAP2 SWAP1 POP JUMP JUMPDEST DUP3 DUP2 DUP4 CALLDATACOPY PUSH1 0x0 DUP4 DUP4 ADD MSTORE POP POP POP JUMP JUMPDEST PUSH1 0x0 PUSH2 0xB92 PUSH2 0xB8D DUP5 PUSH2 0xB3F JUMP JUMPDEST PUSH2 0xB24 JUMP JUMPDEST SWAP1 POP DUP3 DUP2 MSTORE PUSH1 0x20 DUP2 ADD DUP5 DUP5 DUP5 ADD GT ISZERO PUSH2 0xBAE JUMPI PUSH2 0xBAD PUSH2 0xAAE JUMP JUMPDEST JUMPDEST PUSH2 0xBB9 DUP5 DUP3 DUP6 PUSH2 0xB70 JUMP JUMPDEST POP SWAP4 SWAP3 POP POP POP JUMP JUMPDEST PUSH1 0x0 DUP3 PUSH1 0x1F DUP4 ADD SLT PUSH2 0xBD6 JUMPI PUSH2 0xBD5 PUSH2 0xAA9 JUMP JUMPDEST JUMPDEST DUP2 CALLDATALOAD PUSH2 0xBE6 DUP5 DUP3 PUSH1 0x20 DUP7 ADD PUSH2 0xB7F JUMP JUMPDEST SWAP2 POP POP SWAP3 SWAP2 POP POP JUMP JUMPDEST PUSH1 0x0 DUP1 PUSH1 0x40 DUP4 DUP6 SUB SLT ISZERO PUSH2 0xC06 JUMPI PUSH2 0xC05 PUSH2 0xA69 JUMP JUMPDEST JUMPDEST PUSH1 0x0 PUSH2 0xC14 DUP6 DUP3 DUP7 ADD PUSH2 0xA94 JUMP JUMPDEST SWAP3 POP POP PUSH1 0x20 DUP4 ADD CALLDATALOAD PUSH8 0xFFFFFFFFFFFFFFFF DUP2 GT ISZERO PUSH2 0xC35 JUMPI PUSH2 0xC34 PUSH2 0xA6E JUMP JUMPDEST JUMPDEST PUSH2 0xC41 DUP6 DUP3 DUP7 ADD PUSH2 0xBC1 JUMP JUMPDEST SWAP2 POP POP SWAP3 POP SWAP3 SWAP1 POP JUMP JUMPDEST PUSH1 0x0 PUSH20 0xFFFFFFFFFFFFFFFFFFFFFFFFFFFFFFFFFFFFFFFF DUP3 AND SWAP1 POP SWAP2 SWAP1 POP JUMP JUMPDEST PUSH1 0x0 PUSH2 0xC76 DUP3 PUSH2 0xC4B JUMP JUMPDEST SWAP1 POP SWAP2 SWAP1 POP JUMP JUMPDEST PUSH2 0xC86 DUP2 PUSH2 0xC6B JUMP JUMPDEST DUP2 EQ PUSH2 0xC91 JUMPI PUSH1 0x0 DUP1 REVERT JUMPDEST POP JUMP JUMPDEST PUSH1 0x0 DUP2 CALLDATALOAD SWAP1 POP PUSH2 0xCA3 DUP2 PUSH2 0xC7D JUMP JUMPDEST SWAP3 SWAP2 POP POP JUMP JUMPDEST PUSH1 0x0 DUP1 PUSH1 0x40 DUP4 DUP6 SUB SLT ISZERO PUSH2 0xCC0 JUMPI PUSH2 0xCBF PUSH2 0xA69 JUMP JUMPDEST JUMPDEST PUSH1 0x0 PUSH2 0xCCE DUP6 DUP3 DUP7 ADD PUSH2 0xC94 JUMP JUMPDEST SWAP3 POP POP PUSH1 0x20 PUSH2 0xCDF DUP6 DUP3 DUP7 ADD PUSH2 0xA94 JUMP JUMPDEST SWAP2 POP POP SWAP3 POP SWAP3 SWAP1 POP JUMP JUMPDEST PUSH1 0x0 DUP1 PUSH1 0x0 DUP1 PUSH1 0x80 DUP6 DUP8 SUB SLT ISZERO PUSH2 0xD03 JUMPI PUSH2 0xD02 PUSH2 0xA69 JUMP JUMPDEST JUMPDEST PUSH1 0x0 PUSH2 0xD11 DUP8 DUP3 DUP9 ADD PUSH2 0xC94 JUMP JUMPDEST SWAP5 POP POP PUSH1 0x20 PUSH2 0xD22 DUP8 DUP3 DUP9 ADD PUSH2 0xA94 JUMP JUMPDEST SWAP4 POP POP PUSH1 0x40 PUSH2 0xD33 DUP8 DUP3 DUP9 ADD PUSH2 0xA94 JUMP JUMPDEST SWAP3 POP POP PUSH1 0x60 PUSH2 0xD44 DUP8 DUP3 DUP9 ADD PUSH2 0xA94 JUMP JUMPDEST SWAP2 POP POP SWAP3 SWAP6 SWAP2 SWAP5 POP SWAP3 POP JUMP JUMPDEST PUSH1 0x0 DUP1 PUSH1 0x0 DUP1 PUSH1 0x0 PUSH1 0xA0 DUP7 DUP9 SUB SLT ISZERO PUSH2 0xD6C JUMPI PUSH2 0xD6B PUSH2 0xA69 JUMP JUMPDEST JUMPDEST PUSH1 0x0 PUSH2 0xD7A DUP9 DUP3 DUP10 ADD PUSH2 0xC94 JUMP JUMPDEST SWAP6 POP POP PUSH1 0x20 PUSH2 0xD8B DUP9 DUP3 DUP10 ADD PUSH2 0xA94 JUMP JUMPDEST SWAP5 POP POP PUSH1 0x40 PUSH2 0xD9C DUP9 DUP3 DUP10 ADD PUSH2 0xA94 JUMP JUMPDEST SWAP4 POP POP PUSH1 0x60 PUSH2 0xDAD DUP9 DUP3 DUP10 ADD PUSH2 0xA94 JUMP JUMPDEST SWAP3 POP POP PUSH1 0x80 PUSH2 0xDBE DUP9 DUP3 DUP10 ADD PUSH2 0xA94 JUMP JUMPDEST SWAP2 POP POP SWAP3 SWAP6 POP SWAP3 SWAP6 SWAP1 SWAP4 POP JUMP JUMPDEST PUSH1 0x0 DUP1 PUSH1 0x0 DUP1 PUSH1 0x0 PUSH1 0xA0 DUP7 DUP9 SUB SLT ISZERO PUSH2 0xDE7 JUMPI PUSH2 0xDE6 PUSH2 0xA69 JUMP JUMPDEST JUMPDEST PUSH1 0x0 PUSH2 0xDF5 DUP9 DUP3 DUP10 ADD PUSH2 0xA94 JUMP JUMPDEST SWAP6 POP POP PUSH1 0x20 PUSH2 0xE06 DUP9 DUP3 DUP10 ADD PUSH2 0xA94 JUMP JUMPDEST SWAP5 POP POP PUSH1 0x40 PUSH2 0xE17 DUP9 DUP3 DUP10 ADD PUSH2 0xA94 JUMP JUMPDEST SWAP4 POP POP PUSH1 0x60 PUSH2 0xE28 DUP9 DUP3 DUP10 ADD PUSH2 0xA94 JUMP JUMPDEST SWAP3 POP POP PUSH1 0x80 DUP7 ADD CALLDATALOAD PUSH8 0xFFFFFFFFFFFFFFFF DUP2 GT ISZERO PUSH2 0xE49 JUMPI PUSH2 0xE48 PUSH2 0xA6E JUMP JUMPDEST JUMPDEST PUSH2 0xE55 DUP9 DUP3 DUP10 ADD PUSH2 0xBC1 JUMP JUMPDEST SWAP2 POP POP SWAP3 SWAP6 POP SWAP3 SWAP6 SWAP1 SWAP4 POP JUMP JUMPDEST PUSH1 0x0 DUP1 PUSH1 0x40 DUP4 DUP6 SUB SLT ISZERO PUSH2 0xE79 JUMPI PUSH2 0xE78 PUSH2 0xA69 JUMP JUMPDEST JUMPDEST PUSH1 0x0 PUSH2 0xE87 DUP6 DUP3 DUP7 ADD PUSH2 0xC94 JUMP JUMPDEST SWAP3 POP POP PUSH1 0x20 DUP4 ADD CALLDATALOAD PUSH8 0xFFFFFFFFFFFFFFFF DUP2 GT ISZERO PUSH2 0xEA8 JUMPI PUSH2 0xEA7 PUSH2 0xA6E JUMP JUMPDEST JUMPDEST PUSH2 0xEB4 DUP6 DUP3 DUP7 ADD PUSH2 0xBC1 JUMP JUMPDEST SWAP2 POP POP SWAP3 POP SWAP3 SWAP1 POP JUMP JUMPDEST PUSH1 0x0 DUP3 DUP3 MSTORE PUSH1 0x20 DUP3 ADD SWAP1 POP SWAP3 SWAP2 POP POP JUMP JUMPDEST PUSH32 0x556E617574686F72697A65642100000000000000000000000000000000000000 PUSH1 0x0 DUP3 ADD MSTORE POP JUMP JUMPDEST PUSH1 0x0 PUSH2 0xF05 PUSH1 0xD DUP4 PUSH2 0xEBE JUMP JUMPDEST SWAP2 POP PUSH2 0xF10 DUP3 PUSH2 0xECF JUMP JUMPDEST PUSH1 0x20 DUP3 ADD SWAP1 POP SWAP2 SWAP1 POP JUMP JUMPDEST PUSH1 0x0 PUSH1 0x20 DUP3 ADD SWAP1 POP DUP2 DUP2 SUB PUSH1 0x0 DUP4 ADD MSTORE PUSH2 0xF34 DUP2 PUSH2 0xEF8 JUMP JUMPDEST SWAP1 POP SWAP2 SWAP1 POP JUMP JUMPDEST PUSH1 0x0 DUP2 MLOAD SWAP1 POP SWAP2 SWAP1 POP JUMP JUMPDEST PUSH1 0x0 DUP2 SWAP1 POP SWAP3 SWAP2 POP POP JUMP JUMPDEST PUSH1 0x0 JUMPDEST DUP4 DUP2 LT ISZERO PUSH2 0xF6F JUMPI DUP1 DUP3 ADD MLOAD DUP2 DUP5 ADD MSTORE PUSH1 0x20 DUP2 ADD SWAP1 POP PUSH2 0xF54 JUMP JUMPDEST PUSH1 0x0 DUP5 DUP5 ADD MSTORE POP POP POP POP JUMP JUMPDEST PUSH1 0x0 PUSH2 0xF86 DUP3 PUSH2 0xF3B JUMP JUMPDEST PUSH2 0xF90 DUP2 DUP6 PUSH2 0xF46 JUMP JUMPDEST SWAP4 POP PUSH2 0xFA0 DUP2 DUP6 PUSH1 0x20 DUP7 ADD PUSH2 0xF51 JUMP JUMPDEST DUP1 DUP5 ADD SWAP2 POP POP SWAP3 SWAP2 POP POP JUMP JUMPDEST PUSH1 0x0 PUSH2 0xFB8 DUP3 DUP5 PUSH2 0xF7B JUMP JUMPDEST SWAP2 POP DUP2 SWAP1 POP SWAP3 SWAP2 POP POP JUMP JUMPDEST PUSH2 0xFCC DUP2 PUSH2 0xA73 JUMP JUMPDEST DUP3 MSTORE POP POP JUMP JUMPDEST PUSH2 0xFDB DUP2 PUSH2 0xC6B JUMP JUMPDEST DUP3 MSTORE POP POP JUMP JUMPDEST PUSH1 0x0 PUSH1 0x40 DUP3 ADD SWAP1 POP PUSH2 0xFF6 PUSH1 0x0 DUP4 ADD DUP6 PUSH2 0xFC3 JUMP JUMPDEST PUSH2 0x1003 PUSH1 0x20 DUP4 ADD DUP5 PUSH2 0xFD2 JUMP JUMPDEST SWAP4 SWAP3 POP POP POP JUMP JUMPDEST PUSH32 0x57726F6E6720496E73706563746F722049440000000000000000000000000000 PUSH1 0x0 DUP3 ADD MSTORE POP JUMP JUMPDEST PUSH1 0x0 PUSH2 0x1040 PUSH1 0x12 DUP4 PUSH2 0xEBE JUMP JUMPDEST SWAP2 POP PUSH2 0x104B DUP3 PUSH2 0x100A JUMP JUMPDEST PUSH1 0x20 DUP3 ADD SWAP1 POP SWAP2 SWAP1 POP JUMP JUMPDEST PUSH1 0x0 PUSH1 0x20 DUP3 ADD SWAP1 POP DUP2 DUP2 SUB PUSH1 0x0 DUP4 ADD MSTORE PUSH2 0x106F DUP2 PUSH2 0x1033 JUMP JUMPDEST SWAP1 POP SWAP2 SWAP1 POP JUMP JUMPDEST PUSH1 0x0 PUSH1 0x20 DUP3 ADD SWAP1 POP PUSH2 0x108B PUSH1 0x0 DUP4 ADD DUP5 PUSH2 0xFC3 JUMP JUMPDEST SWAP3 SWAP2 POP POP JUMP JUMPDEST PUSH1 0x0 PUSH1 0x80 DUP3 ADD SWAP1 POP PUSH2 0x10A6 PUSH1 0x0 DUP4 ADD DUP8 PUSH2 0xFC3 JUMP JUMPDEST PUSH2 0x10B3 PUSH1 0x20 DUP4 ADD DUP7 PUSH2 0xFC3 JUMP JUMPDEST PUSH2 0x10C0 PUSH1 0x40 DUP4 ADD DUP6 PUSH2 0xFC3 JUMP JUMPDEST PUSH2 0x10CD PUSH1 0x60 DUP4 ADD DUP5 PUSH2 0xFD2 JUMP JUMPDEST SWAP6 SWAP5 POP POP POP POP POP JUMP JUMPDEST PUSH1 0x0 PUSH1 0xA0 DUP3 ADD SWAP1 POP PUSH2 0x10EB PUSH1 0x0 DUP4 ADD DUP9 PUSH2 0xFC3 JUMP JUMPDEST PUSH2 0x10F8 PUSH1 0x20 DUP4 ADD DUP8 PUSH2 0xFC3 JUMP JUMPDEST PUSH2 0x1105 PUSH1 0x40 DUP4 ADD DUP7 PUSH2 0xFC3 JUMP JUMPDEST PUSH2 0x1112 PUSH1 0x60 DUP4 ADD DUP6 PUSH2 0xFC3 JUMP JUMPDEST PUSH2 0x111F PUSH1 0x80 DUP4 ADD DUP5 PUSH2 0xFD2 JUMP JUMPDEST SWAP7 SWAP6 POP POP POP POP POP POP JUMP JUMPDEST PUSH1 0x0 PUSH2 0x1134 DUP3 PUSH2 0xF3B JUMP JUMPDEST PUSH2 0x113E DUP2 DUP6 PUSH2 0xEBE JUMP JUMPDEST SWAP4 POP PUSH2 0x114E DUP2 DUP6 PUSH1 0x20 DUP7 ADD PUSH2 0xF51 JUMP JUMPDEST PUSH2 0x1157 DUP2 PUSH2 0xAB3 JUMP JUMPDEST DUP5 ADD SWAP2 POP POP SWAP3 SWAP2 POP POP JUMP JUMPDEST PUSH1 0x0 PUSH1 0x60 DUP3 ADD SWAP1 POP PUSH2 0x1177 PUSH1 0x0 DUP4 ADD DUP7 PUSH2 0xFD2 JUMP JUMPDEST DUP2 DUP2 SUB PUSH1 0x20 DUP4 ADD MSTORE PUSH2 0x1189 DUP2 DUP6 PUSH2 0x1129 JUMP JUMPDEST SWAP1 POP PUSH2 0x1198 PUSH1 0x40 DUP4 ADD DUP5 PUSH2 0xFC3 JUMP JUMPDEST SWAP5 SWAP4 POP POP POP POP JUMP INVALID LOG2 PUSH5 0x6970667358 0x22 SLT KECCAK256 0x27 0xEB PUSH25 0x7C8E9E29A79A339600F22CFF723A46F7F6482D29FFF4528738 0xCA 0xB1 0x1E 0xDD PUSH5 0x736F6C6343 STOP ADDMOD SLT STOP CALLER "},"methodIdentifiers":{"addLandInspector(address,uint256)":"3ef62b66","addNewProperty(uint256,string)":"1004c78a","addSocietyBlock(address,string)":"d5baaf88","approveTransferRequest(address,uint256,uint256,uint256,uint256)":"5edd0540","executeReverseCase(address,uint256,uint256,uint256)":"2c1b1eea","removeLandInspector(address,uint256)":"1237ad7b","transferNewProperty(uint256,uint256,uint256,uint256,string)":"7aa1216c"}}}}}