{
  "_format": "hh-sol-artifact-1",
  "contractName": "OwnerShip",
  "sourceName": "contracts/OwnerShip.sol",
  "abi": [
    {
      "inputs": [
        {
          "internalType": "address",
          "name": "_goverment",
          "type": "address"
        },
        {
          "internalType": "address",
          "name": "_highcourt",
          "type": "address"
        },
        {
          "internalType": "address",
          "name": "_landInspectorContract",
          "type": "address"
        },
        {
          "internalType": "address",
          "name": "_citizenContract",
          "type": "address"
        }
      ],
      "stateMutability": "nonpayable",
      "type": "constructor"
    },
    {
      "anonymous": false,
      "inputs": [
        {
          "indexed": true,
          "internalType": "uint256",
          "name": "PropertyId",
          "type": "uint256"
        },
        {
          "indexed": true,
          "internalType": "address",
          "name": "AddByInspector",
          "type": "address"
        },
        {
          "indexed": false,
          "internalType": "uint256",
          "name": "Time",
          "type": "uint256"
        }
      ],
      "name": "AddNewPropertyLog",
      "type": "event"
    },
    {
      "anonymous": false,
      "inputs": [
        {
          "indexed": true,
          "internalType": "uint256",
          "name": "PropertyId",
          "type": "uint256"
        },
        {
          "indexed": true,
          "internalType": "uint256",
          "name": "CaseNumber",
          "type": "uint256"
        },
        {
          "indexed": false,
          "internalType": "uint256",
          "name": "CutFromCnic",
          "type": "uint256"
        },
        {
          "indexed": false,
          "internalType": "uint256",
          "name": "AddToCnic",
          "type": "uint256"
        },
        {
          "indexed": false,
          "internalType": "uint256",
          "name": "Shares",
          "type": "uint256"
        },
        {
          "indexed": false,
          "internalType": "address",
          "name": "LandInspectorWallet",
          "type": "address"
        },
        {
          "indexed": false,
          "internalType": "uint256",
          "name": "Time",
          "type": "uint256"
        }
      ],
      "name": "ConfirmedReverseCaseLogs",
      "type": "event"
    },
    {
      "anonymous": false,
      "inputs": [
        {
          "indexed": true,
          "internalType": "uint256",
          "name": "PropertyId",
          "type": "uint256"
        },
        {
          "indexed": true,
          "internalType": "uint256",
          "name": "RequestNumber",
          "type": "uint256"
        },
        {
          "indexed": false,
          "internalType": "uint256",
          "name": "OwnerCnic",
          "type": "uint256"
        },
        {
          "indexed": false,
          "internalType": "uint256",
          "name": "BuyerCnic",
          "type": "uint256"
        },
        {
          "indexed": true,
          "internalType": "address",
          "name": "LandInspectorWallet",
          "type": "address"
        }
      ],
      "name": "ConfirmedTransactionRequestsLogs",
      "type": "event"
    },
    {
      "anonymous": false,
      "inputs": [
        {
          "indexed": false,
          "internalType": "uint256",
          "name": "IndexIs",
          "type": "uint256"
        },
        {
          "indexed": false,
          "internalType": "uint256",
          "name": "PropertyID",
          "type": "uint256"
        },
        {
          "indexed": false,
          "internalType": "uint256",
          "name": "From",
          "type": "uint256"
        },
        {
          "indexed": false,
          "internalType": "uint256",
          "name": "To",
          "type": "uint256"
        },
        {
          "indexed": false,
          "internalType": "uint256",
          "name": "Shares",
          "type": "uint256"
        }
      ],
      "name": "IndexOfRecordedTransaction",
      "type": "event"
    },
    {
      "anonymous": false,
      "inputs": [
        {
          "indexed": true,
          "internalType": "uint256",
          "name": "PropertyId",
          "type": "uint256"
        },
        {
          "indexed": true,
          "internalType": "uint256",
          "name": "BuyerCnic",
          "type": "uint256"
        },
        {
          "indexed": true,
          "internalType": "uint256",
          "name": "SellerCnic",
          "type": "uint256"
        },
        {
          "indexed": false,
          "internalType": "uint256",
          "name": "SharesAmount",
          "type": "uint256"
        },
        {
          "indexed": false,
          "internalType": "uint256",
          "name": "Prize",
          "type": "uint256"
        },
        {
          "indexed": false,
          "internalType": "uint256",
          "name": "Time",
          "type": "uint256"
        }
      ],
      "name": "PrpertyTransactionRecord",
      "type": "event"
    },
    {
      "anonymous": false,
      "inputs": [
        {
          "indexed": true,
          "internalType": "uint256",
          "name": "PropertyId",
          "type": "uint256"
        },
        {
          "indexed": true,
          "internalType": "uint256",
          "name": "CaseNumber",
          "type": "uint256"
        },
        {
          "indexed": false,
          "internalType": "uint256",
          "name": "CutFromCNIC",
          "type": "uint256"
        },
        {
          "indexed": true,
          "internalType": "uint256",
          "name": "AddToCNIC",
          "type": "uint256"
        },
        {
          "indexed": false,
          "internalType": "uint256",
          "name": "AmountOfShares",
          "type": "uint256"
        },
        {
          "indexed": false,
          "internalType": "uint256",
          "name": "Time",
          "type": "uint256"
        }
      ],
      "name": "ReverseCases",
      "type": "event"
    },
    {
      "anonymous": false,
      "inputs": [
        {
          "indexed": true,
          "internalType": "uint256",
          "name": "PropertyId",
          "type": "uint256"
        },
        {
          "indexed": false,
          "internalType": "uint256",
          "name": "BuyerCnic",
          "type": "uint256"
        },
        {
          "indexed": false,
          "internalType": "uint256",
          "name": "Shares",
          "type": "uint256"
        },
        {
          "indexed": false,
          "internalType": "uint256",
          "name": "AmountOfPropertyCoins",
          "type": "uint256"
        },
        {
          "indexed": true,
          "internalType": "address",
          "name": "InspectorAddress",
          "type": "address"
        },
        {
          "indexed": false,
          "internalType": "uint256",
          "name": "Time",
          "type": "uint256"
        }
      ],
      "name": "SellNewPropertyLog",
      "type": "event"
    },
    {
      "anonymous": false,
      "inputs": [
        {
          "indexed": true,
          "internalType": "uint256",
          "name": "PropertyID",
          "type": "uint256"
        },
        {
          "indexed": true,
          "internalType": "uint256",
          "name": "SellerCnic",
          "type": "uint256"
        },
        {
          "indexed": true,
          "internalType": "uint256",
          "name": "BuyerCnic",
          "type": "uint256"
        },
        {
          "indexed": false,
          "internalType": "uint256",
          "name": "Shares",
          "type": "uint256"
        },
        {
          "indexed": false,
          "internalType": "uint256",
          "name": "prize",
          "type": "uint256"
        },
        {
          "indexed": false,
          "internalType": "uint256",
          "name": "Time",
          "type": "uint256"
        }
      ],
      "name": "TransactionRecordLogs",
      "type": "event"
    },
    {
      "anonymous": false,
      "inputs": [
        {
          "indexed": true,
          "internalType": "uint256",
          "name": "PropertyId",
          "type": "uint256"
        },
        {
          "indexed": true,
          "internalType": "uint256",
          "name": "OwnerCnic",
          "type": "uint256"
        },
        {
          "indexed": true,
          "internalType": "uint256",
          "name": "BuyerCnic",
          "type": "uint256"
        },
        {
          "indexed": false,
          "internalType": "uint256",
          "name": "Shares",
          "type": "uint256"
        },
        {
          "indexed": false,
          "internalType": "uint256",
          "name": "PrizeOFOneShare",
          "type": "uint256"
        },
        {
          "indexed": false,
          "internalType": "uint256",
          "name": "RequestNumber",
          "type": "uint256"
        },
        {
          "indexed": false,
          "internalType": "uint256",
          "name": "Time",
          "type": "uint256"
        }
      ],
      "name": "TransactionRequestLogs",
      "type": "event"
    },
    {
      "inputs": [],
      "name": "CitizenContract",
      "outputs": [
        {
          "internalType": "address",
          "name": "",
          "type": "address"
        }
      ],
      "stateMutability": "view",
      "type": "function"
    },
    {
      "inputs": [
        {
          "internalType": "uint256",
          "name": "_propertyId",
          "type": "uint256"
        },
        {
          "internalType": "address",
          "name": "_inspector",
          "type": "address"
        }
      ],
      "name": "addNewProperty",
      "outputs": [],
      "stateMutability": "nonpayable",
      "type": "function"
    },
    {
      "inputs": [
        {
          "internalType": "address",
          "name": "_blockAddress",
          "type": "address"
        },
        {
          "internalType": "uint256",
          "name": "_checkPropertiesAmount",
          "type": "uint256"
        }
      ],
      "name": "approve",
      "outputs": [],
      "stateMutability": "nonpayable",
      "type": "function"
    },
    {
      "inputs": [
        {
          "internalType": "uint256",
          "name": "_propertyId",
          "type": "uint256"
        },
        {
          "internalType": "uint256",
          "name": "_requestNumber",
          "type": "uint256"
        },
        {
          "internalType": "uint256",
          "name": "_ownerCnic",
          "type": "uint256"
        },
        {
          "internalType": "uint256",
          "name": "_buyerCnic",
          "type": "uint256"
        },
        {
          "internalType": "address",
          "name": "_landinspectorWallet",
          "type": "address"
        }
      ],
      "name": "approveTransferRequest",
      "outputs": [],
      "stateMutability": "nonpayable",
      "type": "function"
    },
    {
      "inputs": [
        {
          "internalType": "address",
          "name": "_newcontractAddress",
          "type": "address"
        }
      ],
      "name": "changeAdminsContract",
      "outputs": [],
      "stateMutability": "nonpayable",
      "type": "function"
    },
    {
      "inputs": [
        {
          "internalType": "address",
          "name": "_newAddress",
          "type": "address"
        }
      ],
      "name": "changeGovermentAuthority",
      "outputs": [],
      "stateMutability": "nonpayable",
      "type": "function"
    },
    {
      "inputs": [],
      "name": "currentCountProperties",
      "outputs": [
        {
          "internalType": "uint256",
          "name": "",
          "type": "uint256"
        }
      ],
      "stateMutability": "view",
      "type": "function"
    },
    {
      "inputs": [
        {
          "internalType": "uint256",
          "name": "_propertyId",
          "type": "uint256"
        },
        {
          "internalType": "uint256",
          "name": "_caseNumber",
          "type": "uint256"
        },
        {
          "internalType": "uint256",
          "name": "_verficationOTPCode",
          "type": "uint256"
        },
        {
          "internalType": "address",
          "name": "_landInspectorWallet",
          "type": "address"
        }
      ],
      "name": "executeReverseCase",
      "outputs": [],
      "stateMutability": "nonpayable",
      "type": "function"
    },
    {
      "inputs": [
        {
          "internalType": "uint256",
          "name": "_propertyId",
          "type": "uint256"
        },
        {
          "internalType": "uint256",
          "name": "_caseNumber",
          "type": "uint256"
        },
        {
          "internalType": "uint256",
          "name": "_cutFrom",
          "type": "uint256"
        },
        {
          "internalType": "uint256",
          "name": "_addTo",
          "type": "uint256"
        },
        {
          "internalType": "uint256",
          "name": "_amountOfShares",
          "type": "uint256"
        },
        {
          "internalType": "uint256",
          "name": "OTPCode",
          "type": "uint256"
        }
      ],
      "name": "generateReverseCase",
      "outputs": [],
      "stateMutability": "nonpayable",
      "type": "function"
    },
    {
      "inputs": [
        {
          "internalType": "uint256",
          "name": "_propertyId",
          "type": "uint256"
        },
        {
          "internalType": "uint256",
          "name": "_cnic",
          "type": "uint256"
        }
      ],
      "name": "getDetailsOfShares",
      "outputs": [
        {
          "internalType": "uint256",
          "name": "persentageSum",
          "type": "uint256"
        },
        {
          "internalType": "uint256",
          "name": "totalShareHolders",
          "type": "uint256"
        },
        {
          "internalType": "uint256[]",
          "name": "shareHoldersArray",
          "type": "uint256[]"
        },
        {
          "internalType": "uint256",
          "name": "sharesOfThisPerson",
          "type": "uint256"
        }
      ],
      "stateMutability": "view",
      "type": "function"
    },
    {
      "inputs": [],
      "name": "govermentAuthority",
      "outputs": [
        {
          "internalType": "address",
          "name": "",
          "type": "address"
        }
      ],
      "stateMutability": "view",
      "type": "function"
    },
    {
      "inputs": [],
      "name": "highcourt",
      "outputs": [
        {
          "internalType": "address",
          "name": "",
          "type": "address"
        }
      ],
      "stateMutability": "view",
      "type": "function"
    },
    {
      "inputs": [
        {
          "internalType": "address",
          "name": "_blockAddress",
          "type": "address"
        },
        {
          "internalType": "uint256",
          "name": "_addAmount",
          "type": "uint256"
        }
      ],
      "name": "increaseProperties",
      "outputs": [],
      "stateMutability": "nonpayable",
      "type": "function"
    },
    {
      "inputs": [],
      "name": "isLdaApproved",
      "outputs": [
        {
          "internalType": "bool",
          "name": "",
          "type": "bool"
        }
      ],
      "stateMutability": "view",
      "type": "function"
    },
    {
      "inputs": [],
      "name": "landInspectorContract",
      "outputs": [
        {
          "internalType": "address",
          "name": "",
          "type": "address"
        }
      ],
      "stateMutability": "view",
      "type": "function"
    },
    {
      "inputs": [
        {
          "internalType": "uint256",
          "name": "",
          "type": "uint256"
        }
      ],
      "name": "properties",
      "outputs": [
        {
          "internalType": "bool",
          "name": "exists",
          "type": "bool"
        },
        {
          "internalType": "uint256",
          "name": "sharesLeft",
          "type": "uint256"
        },
        {
          "internalType": "bool",
          "name": "stay",
          "type": "bool"
        }
      ],
      "stateMutability": "view",
      "type": "function"
    },
    {
      "inputs": [
        {
          "internalType": "uint256",
          "name": "_propertyId",
          "type": "uint256"
        },
        {
          "internalType": "uint256",
          "name": "_cnic",
          "type": "uint256"
        },
        {
          "internalType": "uint256",
          "name": "_sharesPercentage",
          "type": "uint256"
        },
        {
          "internalType": "uint256",
          "name": "_propertyTokensAmount",
          "type": "uint256"
        },
        {
          "internalType": "address",
          "name": "_inspectorAddress",
          "type": "address"
        }
      ],
      "name": "sellNewProperty",
      "outputs": [],
      "stateMutability": "payable",
      "type": "function"
    },
    {
      "inputs": [
        {
          "internalType": "uint256",
          "name": "",
          "type": "uint256"
        }
      ],
      "name": "shareRecords",
      "outputs": [
        {
          "internalType": "uint256",
          "name": "persentageSum",
          "type": "uint256"
        },
        {
          "internalType": "uint256",
          "name": "totalShareholders",
          "type": "uint256"
        }
      ],
      "stateMutability": "view",
      "type": "function"
    },
    {
      "inputs": [
        {
          "internalType": "uint256",
          "name": "_propertyId",
          "type": "uint256"
        },
        {
          "internalType": "uint256",
          "name": "_ownerCnic",
          "type": "uint256"
        },
        {
          "internalType": "uint256",
          "name": "_sharesAmount",
          "type": "uint256"
        },
        {
          "internalType": "uint256",
          "name": "_requestNumber",
          "type": "uint256"
        }
      ],
      "name": "signatureForBuyer",
      "outputs": [],
      "stateMutability": "nonpayable",
      "type": "function"
    },
    {
      "inputs": [
        {
          "internalType": "uint256",
          "name": "_propertyId",
          "type": "uint256"
        },
        {
          "internalType": "uint256",
          "name": "_caseNumber",
          "type": "uint256"
        },
        {
          "internalType": "uint256",
          "name": "_verficationOTPCode",
          "type": "uint256"
        },
        {
          "internalType": "uint256",
          "name": "_newOTPCode",
          "type": "uint256"
        }
      ],
      "name": "singnatureToReverseCase",
      "outputs": [],
      "stateMutability": "nonpayable",
      "type": "function"
    },
    {
      "inputs": [
        {
          "internalType": "uint256",
          "name": "_propertyId",
          "type": "uint256"
        }
      ],
      "name": "stayOnProperty",
      "outputs": [],
      "stateMutability": "nonpayable",
      "type": "function"
    },
    {
      "inputs": [],
      "name": "totalProperties",
      "outputs": [
        {
          "internalType": "uint256",
          "name": "",
          "type": "uint256"
        }
      ],
      "stateMutability": "view",
      "type": "function"
    },
    {
      "inputs": [
        {
          "internalType": "uint256",
          "name": "_OwnerCnic",
          "type": "uint256"
        },
        {
          "internalType": "uint256",
          "name": "_propertyId",
          "type": "uint256"
        },
        {
          "internalType": "uint256",
          "name": "_transferSharesAmount",
          "type": "uint256"
        },
        {
          "internalType": "uint256",
          "name": "_priceOfOneShare",
          "type": "uint256"
        },
        {
          "internalType": "uint256",
          "name": "_buyerCnic",
          "type": "uint256"
        }
      ],
      "name": "transferOwnerShipRequest",
      "outputs": [],
      "stateMutability": "nonpayable",
      "type": "function"
    }
  ],
  "bytecode": "0x60806040526000600155600060025573d9145cce52d386f254917e481eb44e9943f39138600360006101000a81548173ffffffffffffffffffffffffffffffffffffffff021916908373ffffffffffffffffffffffffffffffffffffffff16021790555073d9145cce52d386f254917e481eb44e9943f39138600460006101000a81548173ffffffffffffffffffffffffffffffffffffffff021916908373ffffffffffffffffffffffffffffffffffffffff160217905550739d7f74d0c41e726ec95884e0e97fa6129e3b5e99600560006101000a81548173ffffffffffffffffffffffffffffffffffffffff021916908373ffffffffffffffffffffffffffffffffffffffff160217905550739d7f74d0c41e726ec95884e0e97fa6129e3b5e99600660006101000a81548173ffffffffffffffffffffffffffffffffffffffff021916908373ffffffffffffffffffffffffffffffffffffffff1602179055503480156200016f57600080fd5b5060405162004cba38038062004cba83398181016040528101906200019591906200030d565b83600360006101000a81548173ffffffffffffffffffffffffffffffffffffffff021916908373ffffffffffffffffffffffffffffffffffffffff16021790555082600660006101000a81548173ffffffffffffffffffffffffffffffffffffffff021916908373ffffffffffffffffffffffffffffffffffffffff16021790555081600460006101000a81548173ffffffffffffffffffffffffffffffffffffffff021916908373ffffffffffffffffffffffffffffffffffffffff16021790555080600560006101000a81548173ffffffffffffffffffffffffffffffffffffffff021916908373ffffffffffffffffffffffffffffffffffffffff160217905550505050506200037f565b600080fd5b600073ffffffffffffffffffffffffffffffffffffffff82169050919050565b6000620002d582620002a8565b9050919050565b620002e781620002c8565b8114620002f357600080fd5b50565b6000815190506200030781620002dc565b92915050565b600080600080608085870312156200032a5762000329620002a3565b5b60006200033a87828801620002f6565b94505060206200034d87828801620002f6565b93505060406200036087828801620002f6565b92505060606200037387828801620002f6565b91505092959194509250565b61492b806200038f6000396000f3fe6080604052600436106101405760003560e01c806396966289116100b6578063ec4f9f601161006f578063ec4f9f6014610427578063f3fb4bde14610450578063f7b108081461047b578063f9d2ba93146104ba578063faae1f99146104e3578063fd94e0eb1461050e57610140565b8063969662891461032f57806397b2e8881461035a578063bbee631114610383578063ccc8d6e9146103ac578063d0a1130b146103d5578063d767a3ad146103fe57610140565b80634757019d116101085780634757019d1461022b5780635cc2531314610254578063719b88251461027057806371e7c4a01461029b5780637c7a3917146102d957806385ff41071461030457610140565b8063095ea7b3146101455780630b3bce201461016e5780630f7880e51461019957806337cba4e6146101d95780633dcc083514610202575b600080fd5b34801561015157600080fd5b5061016c60048036038101906101679190613137565b610537565b005b34801561017a57600080fd5b50610183610698565b6040516101909190613186565b60405180910390f35b3480156101a557600080fd5b506101c060048036038101906101bb91906131a1565b61069e565b6040516101d0949392919061329f565b60405180910390f35b3480156101e557600080fd5b5061020060048036038101906101fb91906132eb565b610777565b005b34801561020e57600080fd5b5061022960048036038101906102249190613352565b6108eb565b005b34801561023757600080fd5b50610252600480360381019061024d91906133b9565b610f2f565b005b61026e600480360381019061026991906133e6565b610f73565b005b34801561027c57600080fd5b506102856115e6565b6040516102929190613470565b60405180910390f35b3480156102a757600080fd5b506102c260048036038101906102bd919061348b565b61160c565b6040516102d09291906134b8565b60405180910390f35b3480156102e557600080fd5b506102ee611630565b6040516102fb91906134fc565b60405180910390f35b34801561031057600080fd5b50610319611641565b6040516103269190613470565b60405180910390f35b34801561033b57600080fd5b50610344611667565b6040516103519190613186565b60405180910390f35b34801561036657600080fd5b50610381600480360381019061037c919061348b565b61166d565b005b34801561038f57600080fd5b506103aa60048036038101906103a59190613517565b61172f565b005b3480156103b857600080fd5b506103d360048036038101906103ce91906132eb565b611922565b005b3480156103e157600080fd5b506103fc60048036038101906103f79190613557565b611afb565b005b34801561040a57600080fd5b5061042560048036038101906104209190613137565b6122a4565b005b34801561043357600080fd5b5061044e600480360381019061044991906133b9565b6123fd565b005b34801561045c57600080fd5b506104656124d1565b6040516104729190613470565b60405180910390f35b34801561048757600080fd5b506104a2600480360381019061049d919061348b565b6124f7565b6040516104b1939291906135d2565b60405180910390f35b3480156104c657600080fd5b506104e160048036038101906104dc9190613609565b61253b565b005b3480156104ef57600080fd5b506104f8612830565b6040516105059190613470565b60405180910390f35b34801561051a57600080fd5b50610535600480360381019061053091906133e6565b612856565b005b600360009054906101000a900473ffffffffffffffffffffffffffffffffffffffff1673ffffffffffffffffffffffffffffffffffffffff163373ffffffffffffffffffffffffffffffffffffffff16146105c7576040517f08c379a00000000000000000000000000000000000000000000000000000000081526004016105be906136f3565b60405180910390fd5b80600254111561060c576040517f08c379a000000000000000000000000000000000000000000000000000000000815260040161060390613785565b60405180910390fd5b8173ffffffffffffffffffffffffffffffffffffffff163073ffffffffffffffffffffffffffffffffffffffff161461067a576040517f08c379a0000000000000000000000000000000000000000000000000000000008152600401610671906137f1565b60405180910390fd5b60016000806101000a81548160ff0219169083151502179055505050565b60015481565b600080606060006008600087815260200190815260200160002060000154600860008881526020019081526020016000206001015460086000898152602001908152602001600020600201600860008a81526020019081526020016000206003016000898152602001908152602001600020600101548180548060200260200160405190810160405280929190818152602001828054801561075f57602002820191906000526020600020905b81548152602001906001019080831161074b575b50505050509150935093509350935092959194509250565b600360009054906101000a900473ffffffffffffffffffffffffffffffffffffffff1673ffffffffffffffffffffffffffffffffffffffff163373ffffffffffffffffffffffffffffffffffffffff1614610807576040517f08c379a00000000000000000000000000000000000000000000000000000000081526004016107fe906136f3565b60405180910390fd5b81600a600086815260200190815260200160002060000160008581526020019081526020016000206004015414610873576040517f08c379a000000000000000000000000000000000000000000000000000000000815260040161086a9061385d565b60405180910390fd5b6001600a6000868152602001908152602001600020600001600085815260200190815260200160002060030160006101000a81548160ff02191690831515021790555080600a600086815260200190815260200160002060000160008581526020019081526020016000206004018190555050505050565b600460009054906101000a900473ffffffffffffffffffffffffffffffffffffffff1673ffffffffffffffffffffffffffffffffffffffff163373ffffffffffffffffffffffffffffffffffffffff161461097b576040517f08c379a0000000000000000000000000000000000000000000000000000000008152600401610972906138c9565b60405180910390fd5b81600a6000868152602001908152602001600020600001600085815260200190815260200160002060040154146109e7576040517f08c379a00000000000000000000000000000000000000000000000000000000081526004016109de9061385d565b60405180910390fd5b6000600a600086815260200190815260200160002060000160008581526020019081526020016000206000015490506000600a600087815260200190815260200160002060000160008681526020019081526020016000206001015490506000600a600088815260200190815260200160002060000160008781526020019081526020016000206002015490506000600560009054906101000a900473ffffffffffffffffffffffffffffffffffffffff16905060008173ffffffffffffffffffffffffffffffffffffffff1663cf28fc9d856040518263ffffffff1660e01b8152600401610ad69190613186565b602060405180830381865afa158015610af3573d6000803e3d6000fd5b505050506040513d601f19601f82011682018060405250810190610b1791906138fe565b90506000600860008b815260200190815260200160002060030160008681526020019081526020016000206001015403610bb557600860008a81526020019081526020016000206001016000815480929190610b729061395a565b9190505550600860008a81526020019081526020016000206002018490806001815401808255809150506001900390600052602060002001600090919091909150555b82600860008b815260200190815260200160002060030160008781526020019081526020016000206001016000828254610bef91906139a2565b9250508190555082600860008b815260200190815260200160002060030160008681526020019081526020016000206001016000828254610c3091906139d6565b9250508190555080600860008b8152602001908152602001600020600301600086815260200190815260200160002060000160006101000a81548173ffffffffffffffffffffffffffffffffffffffff021916908373ffffffffffffffffffffffffffffffffffffffff16021790555042600860008b81526020019081526020016000206003016000868152602001908152602001600020600201819055506000600860008b815260200190815260200160002060030160008781526020019081526020016000206001015403610ecf57600860008a81526020019081526020016000206003016000868152602001908152602001600020600080820160006101000a81549073ffffffffffffffffffffffffffffffffffffffff0219169055600182016000905560028201600090555050600860008a81526020019081526020016000206001016000815480929190610d8990613a0a565b919050555060005b600860008b815260200190815260200160002060020180549050811015610ecd5785600860008c81526020019081526020016000206002018281548110610ddb57610dda613a33565b5b906000526020600020015403610eba57600860008b81526020019081526020016000206002016001600860008d815260200190815260200160002060020180549050610e2791906139a2565b81548110610e3857610e37613a33565b5b9060005260206000200154600860008c81526020019081526020016000206002018281548110610e6b57610e6a613a33565b5b9060005260206000200181905550600860008b8152602001908152602001600020600201805480610e9f57610e9e613a62565b5b60019003818190600052602060002001600090559055610ecd565b8080610ec59061395a565b915050610d91565b505b600a60008a81526020019081526020016000205087897f657bdc0f195f072c14f4c949ad1c9ad01d24080e729b1425ff43882ea8bbc0718787878b42604051610f1c959493929190613a91565b60405180910390a3505050505050505050565b80600460006101000a81548173ffffffffffffffffffffffffffffffffffffffff021916908373ffffffffffffffffffffffffffffffffffffffff16021790555050565b600460009054906101000a900473ffffffffffffffffffffffffffffffffffffffff1673ffffffffffffffffffffffffffffffffffffffff163373ffffffffffffffffffffffffffffffffffffffff1614611003576040517f08c379a0000000000000000000000000000000000000000000000000000000008152600401610ffa906138c9565b60405180910390fd5b600015156007600087815260200190815260200160002060020160009054906101000a900460ff1615151461106d576040517f08c379a000000000000000000000000000000000000000000000000000000000815260040161106490613b30565b60405180910390fd5b60008311801561107e575060648311155b80156110ac575060648360086000888152602001908152602001600020600001546110a991906139d6565b11155b6110eb576040517f08c379a00000000000000000000000000000000000000000000000000000000081526004016110e290613b9c565b60405180910390fd5b6001151560008054906101000a900460ff1615151461113f576040517f08c379a000000000000000000000000000000000000000000000000000000000815260040161113690613c08565b60405180910390fd5b6007600086815260200190815260200160002060000160009054906101000a900460ff166111a2576040517f08c379a000000000000000000000000000000000000000000000000000000000815260040161119990613c74565b60405180910390fd5b6000600560009054906101000a900473ffffffffffffffffffffffffffffffffffffffff1690508073ffffffffffffffffffffffffffffffffffffffff16637d6076d6866040518263ffffffff1660e01b81526004016112029190613186565b602060405180830381865afa15801561121f573d6000803e3d6000fd5b505050506040513d601f19601f820116820180604052508101906112439190613cc0565b611282576040517f08c379a000000000000000000000000000000000000000000000000000000000815260040161127990613d39565b60405180910390fd5b8073ffffffffffffffffffffffffffffffffffffffff16639d152e01866040518263ffffffff1660e01b81526004016112bb9190613186565b602060405180830381865afa1580156112d8573d6000803e3d6000fd5b505050506040513d601f19601f820116820180604052508101906112fc9190613cc0565b61133b576040517f08c379a000000000000000000000000000000000000000000000000000000000815260040161133290613da5565b60405180910390fd5b60008173ffffffffffffffffffffffffffffffffffffffff1663cf28fc9d876040518263ffffffff1660e01b81526004016113769190613186565b602060405180830381865afa158015611393573d6000803e3d6000fd5b505050506040513d601f19601f820116820180604052508101906113b791906138fe565b905060006008600089815260200190815260200160002060030160008881526020019081526020016000206001015403611455576008600088815260200190815260200160002060010160008154809291906114129061395a565b9190505550600860008881526020019081526020016000206002018690806001815401808255809150506001900390600052602060002001600090919091909150555b8060086000898152602001908152602001600020600301600088815260200190815260200160002060000160006101000a81548173ffffffffffffffffffffffffffffffffffffffff021916908373ffffffffffffffffffffffffffffffffffffffff1602179055508460086000898152602001908152602001600020600301600088815260200190815260200160002060010160008282546114f891906139d6565b9250508190555042600860008981526020019081526020016000206003016000888152602001908152602001600020600201819055508460086000898152602001908152602001600020600001600082825461155491906139d6565b925050819055508460076000898152602001908152602001600020600101600082825461158191906139a2565b925050819055508273ffffffffffffffffffffffffffffffffffffffff16877f7a99358e0755a3303b711b7ad47569b8bfd9595b369e56b0637dd03977bc9333888888426040516115d59493929190613dc5565b60405180910390a350505050505050565b600360009054906101000a900473ffffffffffffffffffffffffffffffffffffffff1681565b60086020528060005260406000206000915090508060000154908060010154905082565b60008054906101000a900460ff1681565b600660009054906101000a900473ffffffffffffffffffffffffffffffffffffffff1681565b60025481565b600660009054906101000a900473ffffffffffffffffffffffffffffffffffffffff1673ffffffffffffffffffffffffffffffffffffffff163373ffffffffffffffffffffffffffffffffffffffff16146116fd576040517f08c379a00000000000000000000000000000000000000000000000000000000081526004016116f490613e56565b60405180910390fd5b60016007600083815260200190815260200160002060020160006101000a81548160ff02191690831515021790555050565b600460009054906101000a900473ffffffffffffffffffffffffffffffffffffffff1673ffffffffffffffffffffffffffffffffffffffff163373ffffffffffffffffffffffffffffffffffffffff16146117bf576040517f08c379a00000000000000000000000000000000000000000000000000000000081526004016117b690613ec2565b60405180910390fd5b60015460025410611805576040517f08c379a00000000000000000000000000000000000000000000000000000000081526004016117fc90613f2e565b60405180910390fd5b600015156007600084815260200190815260200160002060000160009054906101000a900460ff1615151461186f576040517f08c379a000000000000000000000000000000000000000000000000000000000815260040161186690613f9a565b60405180910390fd5b6064600760008481526020019081526020016000206001018190555060016007600084815260200190815260200160002060000160006101000a81548160ff02191690831515021790555060016002546118c991906139d6565b6002819055508073ffffffffffffffffffffffffffffffffffffffff16827ffd3d4f3a51f458769bc1176785ecb8d94bcd4895e7b8671438af026fab206e76426040516119169190613186565b60405180910390a35050565b3373ffffffffffffffffffffffffffffffffffffffff1660096000868152602001908152602001600020600101600083815260200190815260200160002060040160009054906101000a900473ffffffffffffffffffffffffffffffffffffffff1673ffffffffffffffffffffffffffffffffffffffff16146119da576040517f08c379a00000000000000000000000000000000000000000000000000000000081526004016119d19061402c565b60405180910390fd5b816009600086815260200190815260200160002060010160008381526020019081526020016000206003015414611a46576040517f08c379a0000000000000000000000000000000000000000000000000000000008152600401611a3d90614098565b60405180910390fd5b826009600086815260200190815260200160002060010160008381526020019081526020016000206000015414611ab2576040517f08c379a0000000000000000000000000000000000000000000000000000000008152600401611aa990614104565b60405180910390fd5b600160096000868152602001908152602001600020600101600083815260200190815260200160002060040160146101000a81548160ff02191690831515021790555050505050565b4261012c60086000878152602001908152602001600020600301600088815260200190815260200160002060020154611b3491906139d6565b10611b74576040517f08c379a0000000000000000000000000000000000000000000000000000000008152600401611b6b90614170565b60405180910390fd5b600015156007600086815260200190815260200160002060020160009054906101000a900460ff16151514611bde576040517f08c379a0000000000000000000000000000000000000000000000000000000008152600401611bd590614202565b60405180910390fd5b6000600560009054906101000a900473ffffffffffffffffffffffffffffffffffffffff1690508073ffffffffffffffffffffffffffffffffffffffff16637d6076d6876040518263ffffffff1660e01b8152600401611c3e9190613186565b602060405180830381865afa158015611c5b573d6000803e3d6000fd5b505050506040513d601f19601f82011682018060405250810190611c7f9190613cc0565b611cbe576040517f08c379a0000000000000000000000000000000000000000000000000000000008152600401611cb590614294565b60405180910390fd5b8073ffffffffffffffffffffffffffffffffffffffff16639d152e01876040518263ffffffff1660e01b8152600401611cf79190613186565b602060405180830381865afa158015611d14573d6000803e3d6000fd5b505050506040513d601f19601f82011682018060405250810190611d389190613cc0565b611d77576040517f08c379a0000000000000000000000000000000000000000000000000000000008152600401611d6e90614300565b60405180910390fd5b3373ffffffffffffffffffffffffffffffffffffffff1660086000878152602001908152602001600020600301600088815260200190815260200160002060000160009054906101000a900473ffffffffffffffffffffffffffffffffffffffff1673ffffffffffffffffffffffffffffffffffffffff1614611e2f576040517f08c379a0000000000000000000000000000000000000000000000000000000008152600401611e269061436c565b60405180910390fd5b83600860008781526020019081526020016000206003016000888152602001908152602001600020600101541015611e9c576040517f08c379a0000000000000000000000000000000000000000000000000000000008152600401611e93906143d8565b60405180910390fd5b8073ffffffffffffffffffffffffffffffffffffffff16639d152e01836040518263ffffffff1660e01b8152600401611ed59190613186565b602060405180830381865afa158015611ef2573d6000803e3d6000fd5b505050506040513d601f19601f82011682018060405250810190611f169190613cc0565b611f55576040517f08c379a0000000000000000000000000000000000000000000000000000000008152600401611f4c90614444565b60405180910390fd5b8073ffffffffffffffffffffffffffffffffffffffff16637d6076d6836040518263ffffffff1660e01b8152600401611f8e9190613186565b602060405180830381865afa158015611fab573d6000803e3d6000fd5b505050506040513d601f19601f82011682018060405250810190611fcf9190613cc0565b61200e576040517f08c379a0000000000000000000000000000000000000000000000000000000008152600401612005906144b0565b60405180910390fd5b6000848461201c91906144d0565b9050600042905060006009600089815260200190815260200160002060010160008381526020019081526020016000206000015414612090576040517f08c379a000000000000000000000000000000000000000000000000000000000815260040161208790614584565b60405180910390fd5b6009600088815260200190815260200160002060000160008154809291906120b79061395a565b919050555087600960008981526020019081526020016000206001016000838152602001908152602001600020600001819055508360096000898152602001908152602001600020600101600083815260200190815260200160002060010181905550816009600089815260200190815260200160002060010160008381526020019081526020016000206002018190555085600960008981526020019081526020016000206001016000838152602001908152602001600020600301819055508273ffffffffffffffffffffffffffffffffffffffff1663cf28fc9d856040518263ffffffff1660e01b81526004016121b19190613186565b602060405180830381865afa1580156121ce573d6000803e3d6000fd5b505050506040513d601f19601f820116820180604052508101906121f291906138fe565b60096000898152602001908152602001600020600101600083815260200190815260200160002060040160006101000a81548173ffffffffffffffffffffffffffffffffffffffff021916908373ffffffffffffffffffffffffffffffffffffffff1602179055508388887ff2043f37aac0d8b6fe39d0e212d50599bacac2d8e60a4cc84e3e593a55d16500898686426040516122929493929190613dc5565b60405180910390a45050505050505050565b600360009054906101000a900473ffffffffffffffffffffffffffffffffffffffff1673ffffffffffffffffffffffffffffffffffffffff163373ffffffffffffffffffffffffffffffffffffffff1614612334576040517f08c379a000000000000000000000000000000000000000000000000000000000815260040161232b906136f3565b60405180910390fd5b60008111612377576040517f08c379a000000000000000000000000000000000000000000000000000000000815260040161236e906145f0565b60405180910390fd5b8173ffffffffffffffffffffffffffffffffffffffff163073ffffffffffffffffffffffffffffffffffffffff16146123e5576040517f08c379a00000000000000000000000000000000000000000000000000000000081526004016123dc906137f1565b60405180910390fd5b806001546123f391906139d6565b6001819055505050565b600360009054906101000a900473ffffffffffffffffffffffffffffffffffffffff1673ffffffffffffffffffffffffffffffffffffffff163373ffffffffffffffffffffffffffffffffffffffff161461248d576040517f08c379a00000000000000000000000000000000000000000000000000000000081526004016124849061465c565b60405180910390fd5b80600360006101000a81548173ffffffffffffffffffffffffffffffffffffffff021916908373ffffffffffffffffffffffffffffffffffffffff16021790555050565b600460009054906101000a900473ffffffffffffffffffffffffffffffffffffffff1681565b60076020528060005260406000206000915090508060000160009054906101000a900460ff16908060010154908060020160009054906101000a900460ff16905083565b816008600088815260200190815260200160002060030160008681526020019081526020016000206001015410156125a8576040517f08c379a000000000000000000000000000000000000000000000000000000000815260040161259f906146c8565b60405180910390fd5b6000600560009054906101000a900473ffffffffffffffffffffffffffffffffffffffff1690508073ffffffffffffffffffffffffffffffffffffffff16637d6076d6856040518263ffffffff1660e01b81526004016126089190613186565b602060405180830381865afa158015612625573d6000803e3d6000fd5b505050506040513d601f19601f820116820180604052508101906126499190613cc0565b612688576040517f08c379a000000000000000000000000000000000000000000000000000000000815260040161267f9061475a565b60405180910390fd5b8073ffffffffffffffffffffffffffffffffffffffff16639d152e01856040518263ffffffff1660e01b81526004016126c19190613186565b602060405180830381865afa1580156126de573d6000803e3d6000fd5b505050506040513d601f19601f820116820180604052508101906127029190613cc0565b612741576040517f08c379a0000000000000000000000000000000000000000000000000000000008152600401612738906147c6565b60405180910390fd5b61274961306d565b6040518060a0016040528087815260200186815260200185815260200160001515815260200184815250905080600a60008a8152602001908152602001600020600001600089815260200190815260200160002060008201518160000155602082015181600101556040820151816002015560608201518160030160006101000a81548160ff021916908315150217905550608082015181600401559050508487897fab2fbca3a06bebe767d455fba372a28cd8c94269f6e20b64e0b02ad847abcebf89884260405161281e939291906147e6565b60405180910390a45050505050505050565b600560009054906101000a900473ffffffffffffffffffffffffffffffffffffffff1681565b600460009054906101000a900473ffffffffffffffffffffffffffffffffffffffff1673ffffffffffffffffffffffffffffffffffffffff163373ffffffffffffffffffffffffffffffffffffffff16146128e6576040517f08c379a00000000000000000000000000000000000000000000000000000000081526004016128dd906138c9565b60405180910390fd5b600960008681526020019081526020016000206001016000858152602001908152602001600020600001548314612952576040517f08c379a000000000000000000000000000000000000000000000000000000000815260040161294990614869565b60405180910390fd5b6009600086815260200190815260200160002060010160008581526020019081526020016000206001015482146129be576040517f08c379a00000000000000000000000000000000000000000000000000000000081526004016129b5906148d5565b60405180910390fd5b6000600960008781526020019081526020016000206001016000868152602001908152602001600020600301549050600060096000888152602001908152602001600020600101600087815260200190815260200160002060020154905081600860008981526020019081526020016000206003016000878152602001908152602001600020600101541015612a89576040517f08c379a0000000000000000000000000000000000000000000000000000000008152600401612a80906143d8565b60405180910390fd5b6000600560009054906101000a900473ffffffffffffffffffffffffffffffffffffffff16905060008173ffffffffffffffffffffffffffffffffffffffff1663cf28fc9d876040518263ffffffff1660e01b8152600401612aeb9190613186565b602060405180830381865afa158015612b08573d6000803e3d6000fd5b505050506040513d601f19601f82011682018060405250810190612b2c91906138fe565b90506000600860008b815260200190815260200160002060030160008881526020019081526020016000206001015403612bca57600860008a81526020019081526020016000206001016000815480929190612b879061395a565b9190505550600860008a81526020019081526020016000206002018690806001815401808255809150506001900390600052602060002001600090919091909150555b83600860008b815260200190815260200160002060030160008981526020019081526020016000206001016000828254612c0491906139a2565b9250508190555083600860008b815260200190815260200160002060030160008881526020019081526020016000206001016000828254612c4591906139d6565b9250508190555080600860008b8152602001908152602001600020600301600088815260200190815260200160002060000160006101000a81548173ffffffffffffffffffffffffffffffffffffffff021916908373ffffffffffffffffffffffffffffffffffffffff16021790555042600860008b81526020019081526020016000206003016000888152602001908152602001600020600201819055506000600860008b815260200190815260200160002060030160008981526020019081526020016000206001015403612ee457600860008a81526020019081526020016000206003016000888152602001908152602001600020600080820160006101000a81549073ffffffffffffffffffffffffffffffffffffffff0219169055600182016000905560028201600090555050600860008a81526020019081526020016000206001016000815480929190612d9e90613a0a565b919050555060005b600860008b815260200190815260200160002060020180549050811015612ee25787600860008c81526020019081526020016000206002018281548110612df057612def613a33565b5b906000526020600020015403612ecf57600860008b81526020019081526020016000206002016001600860008d815260200190815260200160002060020180549050612e3c91906139a2565b81548110612e4d57612e4c613a33565b5b9060005260206000200154600860008c81526020019081526020016000206002018281548110612e8057612e7f613a33565b5b9060005260206000200181905550600860008b8152602001908152602001600020600201805480612eb457612eb3613a62565b5b60019003818190600052602060002001600090559055612ee2565b8080612eda9061395a565b915050612da6565b505b600960008a81526020019081526020016000206000016000815480929190612f0b90613a0a565b91905055506000600960008b81526020019081526020016000206000015403612f4d57600960008a815260200190815260200160002060008082016000905550505b600960008a815260200190815260200160002060010160008981526020019081526020016000206000808201600090556001820160009055600282016000905560038201600090556004820160006101000a81549073ffffffffffffffffffffffffffffffffffffffff02191690556004820160146101000a81549060ff0219169055505085878a7f4732224cbf1ef8927828934c9efa5194fe96babad9e9119eab99fb898420aac4878742604051613008939291906147e6565b60405180910390a48473ffffffffffffffffffffffffffffffffffffffff16888a7f29874ad0b5e98a49f04e1f2111b481124322a3f008313fd57c3f74915eecf7d38a8a60405161305a9291906134b8565b60405180910390a4505050505050505050565b6040518060a00160405280600081526020016000815260200160008152602001600015158152602001600081525090565b600080fd5b600073ffffffffffffffffffffffffffffffffffffffff82169050919050565b60006130ce826130a3565b9050919050565b6130de816130c3565b81146130e957600080fd5b50565b6000813590506130fb816130d5565b92915050565b6000819050919050565b61311481613101565b811461311f57600080fd5b50565b6000813590506131318161310b565b92915050565b6000806040838503121561314e5761314d61309e565b5b600061315c858286016130ec565b925050602061316d85828601613122565b9150509250929050565b61318081613101565b82525050565b600060208201905061319b6000830184613177565b92915050565b600080604083850312156131b8576131b761309e565b5b60006131c685828601613122565b92505060206131d785828601613122565b9150509250929050565b600081519050919050565b600082825260208201905092915050565b6000819050602082019050919050565b61321681613101565b82525050565b6000613228838361320d565b60208301905092915050565b6000602082019050919050565b600061324c826131e1565b61325681856131ec565b9350613261836131fd565b8060005b83811015613292578151613279888261321c565b975061328483613234565b925050600181019050613265565b5085935050505092915050565b60006080820190506132b46000830187613177565b6132c16020830186613177565b81810360408301526132d38185613241565b90506132e26060830184613177565b95945050505050565b600080600080608085870312156133055761330461309e565b5b600061331387828801613122565b945050602061332487828801613122565b935050604061333587828801613122565b925050606061334687828801613122565b91505092959194509250565b6000806000806080858703121561336c5761336b61309e565b5b600061337a87828801613122565b945050602061338b87828801613122565b935050604061339c87828801613122565b92505060606133ad878288016130ec565b91505092959194509250565b6000602082840312156133cf576133ce61309e565b5b60006133dd848285016130ec565b91505092915050565b600080600080600060a086880312156134025761340161309e565b5b600061341088828901613122565b955050602061342188828901613122565b945050604061343288828901613122565b935050606061344388828901613122565b9250506080613454888289016130ec565b9150509295509295909350565b61346a816130c3565b82525050565b60006020820190506134856000830184613461565b92915050565b6000602082840312156134a1576134a061309e565b5b60006134af84828501613122565b91505092915050565b60006040820190506134cd6000830185613177565b6134da6020830184613177565b9392505050565b60008115159050919050565b6134f6816134e1565b82525050565b600060208201905061351160008301846134ed565b92915050565b6000806040838503121561352e5761352d61309e565b5b600061353c85828601613122565b925050602061354d858286016130ec565b9150509250929050565b600080600080600060a086880312156135735761357261309e565b5b600061358188828901613122565b955050602061359288828901613122565b94505060406135a388828901613122565b93505060606135b488828901613122565b92505060806135c588828901613122565b9150509295509295909350565b60006060820190506135e760008301866134ed565b6135f46020830185613177565b61360160408301846134ed565b949350505050565b60008060008060008060c087890312156136265761362561309e565b5b600061363489828a01613122565b965050602061364589828a01613122565b955050604061365689828a01613122565b945050606061366789828a01613122565b935050608061367889828a01613122565b92505060a061368989828a01613122565b9150509295509295509295565b600082825260208201905092915050565b7f4f6e6c7920476f7665726d656e7420417574686f726974790000000000000000600082015250565b60006136dd601883613696565b91506136e8826136a7565b602082019050919050565b6000602082019050818103600083015261370c816136d0565b9050919050565b7f416d6f756e74206f6620746f74616c2070726f7065727469657320697320677260008201527f6174657200000000000000000000000000000000000000000000000000000000602082015250565b600061376f602483613696565b915061377a82613713565b604082019050919050565b6000602082019050818103600083015261379e81613762565b9050919050565b7f57726f6e6720636f6e7472616374000000000000000000000000000000000000600082015250565b60006137db600e83613696565b91506137e6826137a5565b602082019050919050565b6000602082019050818103600083015261380a816137ce565b9050919050565b7f496e76616c696420496e666f726d6174696f6e00000000000000000000000000600082015250565b6000613847601383613696565b915061385282613811565b602082019050919050565b600060208201905081810360008301526138768161383a565b9050919050565b7f4f6e6c79204c616e64496e73706563746f720000000000000000000000000000600082015250565b60006138b3601283613696565b91506138be8261387d565b602082019050919050565b600060208201905081810360008301526138e2816138a6565b9050919050565b6000815190506138f8816130d5565b92915050565b6000602082840312156139145761391361309e565b5b6000613922848285016138e9565b91505092915050565b7f4e487b7100000000000000000000000000000000000000000000000000000000600052601160045260246000fd5b600061396582613101565b91507fffffffffffffffffffffffffffffffffffffffffffffffffffffffffffffffff82036139975761399661392b565b5b600182019050919050565b60006139ad82613101565b91506139b883613101565b92508282039050818111156139d0576139cf61392b565b5b92915050565b60006139e182613101565b91506139ec83613101565b9250828201905080821115613a0457613a0361392b565b5b92915050565b6000613a1582613101565b915060008203613a2857613a2761392b565b5b600182039050919050565b7f4e487b7100000000000000000000000000000000000000000000000000000000600052603260045260246000fd5b7f4e487b7100000000000000000000000000000000000000000000000000000000600052603160045260246000fd5b600060a082019050613aa66000830188613177565b613ab36020830187613177565b613ac06040830186613177565b613acd6060830185613461565b613ada6080830184613177565b9695505050505050565b7f546869732070726f706572747920697320726573747269637465640000000000600082015250565b6000613b1a601b83613696565b9150613b2582613ae4565b602082019050919050565b60006020820190508181036000830152613b4981613b0d565b9050919050565b7f50657263656e746167657320617265206e6f742076616c696400000000000000600082015250565b6000613b86601983613696565b9150613b9182613b50565b602082019050919050565b60006020820190508181036000830152613bb581613b79565b9050919050565b7f4e6f7420617070726f766564206279204c444100000000000000000000000000600082015250565b6000613bf2601383613696565b9150613bfd82613bbc565b602082019050919050565b60006020820190508181036000830152613c2181613be5565b9050919050565b7f50726f7065727479206e6f7420657869737420697320536f6369657479000000600082015250565b6000613c5e601d83613696565b9150613c6982613c28565b602082019050919050565b60006020820190508181036000830152613c8d81613c51565b9050919050565b613c9d816134e1565b8114613ca857600080fd5b50565b600081519050613cba81613c94565b92915050565b600060208284031215613cd657613cd561309e565b5b6000613ce484828501613cab565b91505092915050565b7f436974697a656e206e6f742076616c6964000000000000000000000000000000600082015250565b6000613d23601183613696565b9150613d2e82613ced565b602082019050919050565b60006020820190508181036000830152613d5281613d16565b9050919050565b7f436974697a656e206973206e6f74206170707276656400000000000000000000600082015250565b6000613d8f601683613696565b9150613d9a82613d59565b602082019050919050565b60006020820190508181036000830152613dbe81613d82565b9050919050565b6000608082019050613dda6000830187613177565b613de76020830186613177565b613df46040830185613177565b613e016060830184613177565b95945050505050565b7f4f6e6c792048696768436f757274000000000000000000000000000000000000600082015250565b6000613e40600e83613696565b9150613e4b82613e0a565b602082019050919050565b60006020820190508181036000830152613e6f81613e33565b9050919050565b7f596f752061726520756e617574686f72697a6564000000000000000000000000600082015250565b6000613eac601483613696565b9150613eb782613e76565b602082019050919050565b60006020820190508181036000830152613edb81613e9f565b9050919050565b7f4c696d6974206578636565646564000000000000000000000000000000000000600082015250565b6000613f18600e83613696565b9150613f2382613ee2565b602082019050919050565b60006020820190508181036000830152613f4781613f0b565b9050919050565b7f50726f706572747920616c726561647920657869737473000000000000000000600082015250565b6000613f84601783613696565b9150613f8f82613f4e565b602082019050919050565b60006020820190508181036000830152613fb381613f77565b9050919050565b7f546869732072657175657374206973206e6f742062656c6f6e677320746f207960008201527f6f75000000000000000000000000000000000000000000000000000000000000602082015250565b6000614016602283613696565b915061402182613fba565b604082019050919050565b6000602082019050818103600083015261404581614009565b9050919050565b7f57726f6e672053686172657320416d6f756e7400000000000000000000000000600082015250565b6000614082601383613696565b915061408d8261404c565b602082019050919050565b600060208201905081810360008301526140b181614075565b9050919050565b7f4f776e657220436e69632077726f6e6720000000000000000000000000000000600082015250565b60006140ee601183613696565b91506140f9826140b8565b602082019050919050565b6000602082019050818103600083015261411d816140e1565b9050919050565b7f54696d65206c696d6974206e6f742066756c6c2066696c6c0000000000000000600082015250565b600061415a601883613696565b915061416582614124565b602082019050919050565b600060208201905081810360008301526141898161414d565b9050919050565b7f546869732070726f70657274792069732072657374726963746564206279206860008201527f696768636f757274000000000000000000000000000000000000000000000000602082015250565b60006141ec602883613696565b91506141f782614190565b604082019050919050565b6000602082019050818103600083015261421b816141df565b9050919050565b7f4f776e6572206973206e6f7420616c6c6f77656420616e64207265737472696360008201527f7465640000000000000000000000000000000000000000000000000000000000602082015250565b600061427e602383613696565b915061428982614222565b604082019050919050565b600060208201905081810360008301526142ad81614271565b9050919050565b7f4f776e6572206d75737420626520617070726f76656400000000000000000000600082015250565b60006142ea601683613696565b91506142f5826142b4565b602082019050919050565b60006020820190508181036000830152614319816142dd565b9050919050565b7f596f752061726520556e617574686f72697a6564000000000000000000000000600082015250565b6000614356601483613696565b915061436182614320565b602082019050919050565b6000602082019050818103600083015261438581614349565b9050919050565b7f456e6f7567682053686172657300000000000000000000000000000000000000600082015250565b60006143c2600d83613696565b91506143cd8261438c565b602082019050919050565b600060208201905081810360008301526143f1816143b5565b9050919050565b7f4275796572206d75737420626520617070726f76656400000000000000000000600082015250565b600061442e601683613696565b9150614439826143f8565b602082019050919050565b6000602082019050818103600083015261445d81614421565b9050919050565b7f4275796572206d75737420626520616c69766500000000000000000000000000600082015250565b600061449a601383613696565b91506144a582614464565b602082019050919050565b600060208201905081810360008301526144c98161448d565b9050919050565b60006144db82613101565b91506144e683613101565b92508282026144f481613101565b9150828204841483151761450b5761450a61392b565b5b5092915050565b7f5472616e73616374696f6e207265766572742c20506c6561736520547279204160008201527f6761696e00000000000000000000000000000000000000000000000000000000602082015250565b600061456e602483613696565b915061457982614512565b604082019050919050565b6000602082019050818103600083015261459d81614561565b9050919050565b7f416d6f756e74206d75737420626520677261746572207468656e207a65726f00600082015250565b60006145da601f83613696565b91506145e5826145a4565b602082019050919050565b60006020820190508181036000830152614609816145cd565b9050919050565b7f556e617574686f72697a65640000000000000000000000000000000000000000600082015250565b6000614646600c83613696565b915061465182614610565b602082019050919050565b6000602082019050818103600083015261467581614639565b9050919050565b7f456e6f7567682073686172657300000000000000000000000000000000000000600082015250565b60006146b2600d83613696565b91506146bd8261467c565b602082019050919050565b600060208201905081810360008301526146e1816146a5565b9050919050565b7f5365636f6e6420706572736f6e206973206e6f7420616c6c6f77656420616e6460008201527f2072657374726963746564000000000000000000000000000000000000000000602082015250565b6000614744602b83613696565b915061474f826146e8565b604082019050919050565b6000602082019050818103600083015261477381614737565b9050919050565b7f5365636f6e6420706572736f6e206d75737420626520617070726f7665640000600082015250565b60006147b0601e83613696565b91506147bb8261477a565b602082019050919050565b600060208201905081810360008301526147df816147a3565b9050919050565b60006060820190506147fb6000830186613177565b6148086020830185613177565b6148156040830184613177565b949350505050565b7f4f776e657220436e696320576f726e6700000000000000000000000000000000600082015250565b6000614853601083613696565b915061485e8261481d565b602082019050919050565b6000602082019050818103600083015261488281614846565b9050919050565b7f427579657220436e696320576f726e6700000000000000000000000000000000600082015250565b60006148bf601083613696565b91506148ca82614889565b602082019050919050565b600060208201905081810360008301526148ee816148b2565b905091905056fea2646970667358221220a3dccc7cd2d4c2e0d7fc0e6dbc3511c6ab4cfa26b60110ccd737e5b72078954564736f6c63430008120033",
  "linkReferences": {},
  "deployedLinkReferences": {}
}